{"abi":[{"type":"constructor","inputs":[{"name":"_oracle","type":"address","internalType":"address"},{"name":"_collateralManager","type":"address","internalType":"address"}],"stateMutability":"nonpayable"},{"type":"receive","stateMutability":"payable"},{"type":"function","name":"borrow","inputs":[{"name":"amount","type":"uint256","internalType":"uint256"}],"outputs":[],"stateMutability":"nonpayable"},{"type":"function","name":"collateralManager","inputs":[],"outputs":[{"name":"","type":"address","internalType":"contract CollateralManager"}],"stateMutability":"view"},{"type":"function","name":"depositCollateral","inputs":[],"outputs":[],"stateMutability":"payable"},{"type":"function","name":"emergencyWithdraw","inputs":[],"outputs":[],"stateMutability":"nonpayable"},{"type":"function","name":"getBorrowedAmount","inputs":[{"name":"user","type":"address","internalType":"address"}],"outputs":[{"name":"","type":"uint256","internalType":"uint256"}],"stateMutability":"view"},{"type":"function","name":"getCollateralValueUSD","inputs":[{"name":"user","type":"address","internalType":"address"}],"outputs":[{"name":"","type":"uint256","internalType":"uint256"}],"stateMutability":"nonpayable"},{"type":"function","name":"getCurrentBorrowRate","inputs":[],"outputs":[{"name":"","type":"uint256","internalType":"uint256"}],"stateMutability":"pure"},{"type":"function","name":"getHealthFactor","inputs":[{"name":"user","type":"address","internalType":"address"}],"outputs":[{"name":"","type":"uint256","internalType":"uint256"}],"stateMutability":"nonpayable"},{"type":"function","name":"getMaxBorrowAmount","inputs":[{"name":"user","type":"address","internalType":"address"}],"outputs":[{"name":"","type":"uint256","internalType":"uint256"}],"stateMutability":"nonpayable"},{"type":"function","name":"getPosition","inputs":[{"name":"user","type":"address","internalType":"address"}],"outputs":[{"name":"","type":"tuple","internalType":"struct ILendingPool.Position","components":[{"name":"collateralAmount","type":"uint256","internalType":"uint256"},{"name":"borrowedAmount","type":"uint256","internalType":"uint256"},{"name":"lastInterestUpdate","type":"uint256","internalType":"uint256"},{"name":"accumulatedInterest","type":"uint256","internalType":"uint256"}]}],"stateMutability":"view"},{"type":"function","name":"getUserCollaterals","inputs":[{"name":"user","type":"address","internalType":"address"}],"outputs":[{"name":"assets","type":"address[]","internalType":"address[]"},{"name":"amounts","type":"uint256[]","internalType":"uint256[]"}],"stateMutability":"view"},{"type":"function","name":"liquidate","inputs":[{"name":"user","type":"address","internalType":"address"}],"outputs":[],"stateMutability":"payable"},{"type":"function","name":"oracle","inputs":[],"outputs":[{"name":"","type":"address","internalType":"contract OracleAggregator"}],"stateMutability":"view"},{"type":"function","name":"owner","inputs":[],"outputs":[{"name":"","type":"address","internalType":"address"}],"stateMutability":"view"},{"type":"function","name":"pause","inputs":[],"outputs":[],"stateMutability":"nonpayable"},{"type":"function","name":"paused","inputs":[],"outputs":[{"name":"","type":"bool","internalType":"bool"}],"stateMutability":"view"},{"type":"function","name":"positions","inputs":[{"name":"","type":"address","internalType":"address"}],"outputs":[{"name":"collateralAmount","type":"uint256","internalType":"uint256"},{"name":"borrowedAmount","type":"uint256","internalType":"uint256"},{"name":"lastInterestUpdate","type":"uint256","internalType":"uint256"},{"name":"accumulatedInterest","type":"uint256","internalType":"uint256"}],"stateMutability":"view"},{"type":"function","name":"repay","inputs":[],"outputs":[],"stateMutability":"payable"},{"type":"function","name":"setCollateralManager","inputs":[{"name":"_manager","type":"address","internalType":"address"}],"outputs":[],"stateMutability":"nonpayable"},{"type":"function","name":"totalBorrowed","inputs":[],"outputs":[{"name":"","type":"uint256","internalType":"uint256"}],"stateMutability":"view"},{"type":"function","name":"transferOwnership","inputs":[{"name":"newOwner","type":"address","internalType":"address"}],"outputs":[],"stateMutability":"nonpayable"},{"type":"function","name":"unpause","inputs":[],"outputs":[],"stateMutability":"nonpayable"},{"type":"function","name":"withdrawCollateral","inputs":[{"name":"","type":"uint256","internalType":"uint256"}],"outputs":[],"stateMutability":"pure"},{"type":"event","name":"Borrowed","inputs":[{"name":"user","type":"address","indexed":true,"internalType":"address"},{"name":"amount","type":"uint256","indexed":false,"internalType":"uint256"},{"name":"healthFactor","type":"uint256","indexed":false,"internalType":"uint256"}],"anonymous":false},{"type":"event","name":"CollateralDeposited","inputs":[{"name":"user","type":"address","indexed":true,"internalType":"address"},{"name":"amount","type":"uint256","indexed":false,"internalType":"uint256"},{"name":"timestamp","type":"uint256","indexed":false,"internalType":"uint256"}],"anonymous":false},{"type":"event","name":"CollateralWithdrawn","inputs":[{"name":"user","type":"address","indexed":true,"internalType":"address"},{"name":"amount","type":"uint256","indexed":false,"internalType":"uint256"}],"anonymous":false},{"type":"event","name":"InterestAccrued","inputs":[{"name":"user","type":"address","indexed":true,"internalType":"address"},{"name":"interestAmount","type":"uint256","indexed":false,"internalType":"uint256"}],"anonymous":false},{"type":"event","name":"Liquidated","inputs":[{"name":"user","type":"address","indexed":true,"internalType":"address"},{"name":"liquidator","type":"address","indexed":true,"internalType":"address"},{"name":"debtRepaid","type":"uint256","indexed":false,"internalType":"uint256"},{"name":"collateralSeized","type":"uint256","indexed":false,"internalType":"uint256"}],"anonymous":false},{"type":"event","name":"Repaid","inputs":[{"name":"user","type":"address","indexed":true,"internalType":"address"},{"name":"amount","type":"uint256","indexed":false,"internalType":"uint256"},{"name":"remainingDebt","type":"uint256","indexed":false,"internalType":"uint256"}],"anonymous":false},{"type":"error","name":"ExceedsLTV","inputs":[]},{"type":"error","name":"HealthyPosition","inputs":[]},{"type":"error","name":"InsufficientCollateral","inputs":[]},{"type":"error","name":"InvalidAddress","inputs":[]},{"type":"error","name":"InvalidCollateralValue","inputs":[]},{"type":"error","name":"NoDebt","inputs":[]},{"type":"error","name":"OracleEmergencyMode","inputs":[]},{"type":"error","name":"ZeroAmount","inputs":[]}],"bytecode":{"object":"0x60a060405234801562000010575f80fd5b5060405162001af538038062001af58339810160408190526200003391620000d5565b6001600160a01b0382166200005b5760405163e6c4247b60e01b815260040160405180910390fd5b6001600160a01b038116620000835760405163e6c4247b60e01b815260040160405180910390fd5b6001600160a01b039182166080525f8054919092166001600160a01b03199182161790915560038054909116331790556200010b565b80516001600160a01b0381168114620000d0575f80fd5b919050565b5f8060408385031215620000e7575f80fd5b620000f283620000b9565b91506200010260208401620000b9565b90509250929050565b6080516119ae620001475f395f818161034901528181610534015281816106d701528181610e4701528181611042015261145b01526119ae5ff3fe60806040526004361061013f575f3560e01c80636112fe2e116100b35780638da5cb5b1161006d5780638da5cb5b146103cb578063b9f2c7b5146103ea578063c5ebeaec14610422578063db2e21bc14610441578063f2fde38b14610455578063fe6bcd7c14610474575f80fd5b80636112fe2e146103115780636f758140146103305780637dc0d1d014610338578063842a05d41461036b5780638456cb591461038a57806385988d9d1461039e575f80fd5b80633f4ba83a116101045780633f4ba83a14610230578063402d8883146102445780634b79cb0f1461024c5780634c19386c1461026b57806355f57510146102805780635c975abb146102e1575f80fd5b806316c197391461014a57806323be345c146101a55780632f865568146101db5780633a5d0a48146101f05780633f0c43921461021d575f80fd5b3661014657005b5f80fd5b348015610155575f80fd5b506101696101643660046115fb565b610493565b60405161019c91908151815260208083015190820152604080830151908201526060918201519181019190915260800190565b60405180910390f35b3480156101b0575f80fd5b505f546101c3906001600160a01b031681565b6040516001600160a01b03909116815260200161019c565b6101ee6101e93660046115fb565b6104ff565b005b3480156101fb575f80fd5b5061020f61020a3660046115fb565b6108fe565b60405190815260200161019c565b348015610228575f80fd5b5060c861020f565b34801561023b575f80fd5b506101ee610971565b6101ee6109aa565b348015610257575f80fd5b5061020f6102663660046115fb565b610b5c565b348015610276575f80fd5b5061020f60025481565b34801561028b575f80fd5b506102c161029a3660046115fb565b600160208190525f9182526040909120805491810154600282015460039092015490919084565b60408051948552602085019390935291830152606082015260800161019c565b3480156102ec575f80fd5b5060035461030190600160a01b900460ff1681565b604051901515815260200161019c565b34801561031c575f80fd5b506101ee61032b366004611616565b610c0a565b6101ee610c71565b348015610343575f80fd5b506101c37f000000000000000000000000000000000000000000000000000000000000000081565b348015610376575f80fd5b506101ee6103853660046115fb565b610cee565b348015610395575f80fd5b506101ee610d60565b3480156103a9575f80fd5b506103bd6103b83660046115fb565b610d9f565b60405161019c92919061162d565b3480156103d6575f80fd5b506003546101c3906001600160a01b031681565b3480156103f5575f80fd5b5061020f6104043660046115fb565b6001600160a01b03165f908152600160208190526040909120015490565b34801561042d575f80fd5b506101ee61043c366004611616565b610e1b565b34801561044c575f80fd5b506101ee611247565b348015610460575f80fd5b506101ee61046f3660046115fb565b611319565b34801561047f575f80fd5b5061020f61048e3660046115fb565b61138c565b6104ba60405180608001604052805f81526020015f81526020015f81526020015f81525090565b506001600160a01b03165f9081526001602081815260408084208151608081018352948552928301549184019190915260028201549083015260030154606082015290565b600354600160a01b900460ff16156105325760405162461bcd60e51b8152600401610529906116af565b60405180910390fd5b7f00000000000000000000000000000000000000000000000000000000000000006001600160a01b0316630905f5606040518163ffffffff1660e01b8152600401602060405180830381865afa15801561058e573d5f803e3d5ffd5b505050506040513d601f19601f820116820180604052508101906105b291906116cf565b156105d057604051633907885f60e11b815260040160405180910390fd5b6001600160a01b0381166105f75760405163e6c4247b60e01b815260040160405180910390fd5b6001600160a01b0381165f908152600160208190526040822090810154909103610634576040516308d1fde360e11b815260040160405180910390fd5b5f805460405163074ba14960e31b81526001600160a01b03858116600483015290911690633a5d0a48906024016020604051808303815f875af115801561067d573d5f803e3d5ffd5b505050506040513d601f19601f820116820180604052508101906106a191906116ee565b6040516341976e0960e01b815273eeeeeeeeeeeeeeeeeeeeeeeeeeeeeeeeeeeeeeee60048201529091505f906001600160a01b037f000000000000000000000000000000000000000000000000000000000000000016906341976e09906024016020604051808303815f875af115801561071d573d5f803e3d5ffd5b505050506040513d601f19601f8201168201806040525081019061074191906116ee565b90505f81136107625760405162461bcd60e51b815260040161052990611705565b5f61077184600101548361150b565b905061077d8382611530565b61079a576040516332c9fea960e11b815260040160405180910390fd5b6001840154348111156107e65760405162461bcd60e51b8152602060048201526014602482015273125b9cdd59999a58da595b9d081c185e5b595b9d60621b6044820152606401610529565b5f6107f082611555565b90505f86600101819055508160025f82825461080c9190611744565b909155505060408051838152602081018390526001600160a01b0389169133917f1f0c6615429d1cdae0dfa233abf91d3b31cdbdd82c8081389832a61e1072f1ea910160405180910390a3813411156108f5575f61086a8334611744565b6040519091505f90339083908381818185875af1925050503d805f81146108ac576040519150601f19603f3d011682016040523d82523d5f602084013e6108b1565b606091505b50509050806108f25760405162461bcd60e51b815260206004820152600d60248201526c1499599d5b990819985a5b1959609a1b6044820152606401610529565b50505b50505050505050565b5f805460405163074ba14960e31b81526001600160a01b03848116600483015290911690633a5d0a48906024016020604051808303815f875af1158015610947573d5f803e3d5ffd5b505050506040513d601f19601f8201168201806040525081019061096b91906116ee565b92915050565b6003546001600160a01b0316331461099b5760405162461bcd60e51b815260040161052990611757565b6003805460ff60a01b19169055565b600354600160a01b900460ff16156109d45760405162461bcd60e51b8152600401610529906116af565b34805f036109f557604051631f2a200560e01b815260040160405180910390fd5b335f908152600160208190526040822090810154909103610a29576040516308d1fde360e11b815260040160405180910390fd5b5f81600101543411610a3b5734610a41565b81600101545b905080826001015f828254610a569190611744565b925050819055508060025f828254610a6e9190611744565b9091555050600182015460405133917f1b8cd61ed43bec7c6bdad3a18ffee613f99c853d16c50678d248d879e1b4343891610ab191858252602082015260400190565b60405180910390a280341115610b57575f610acc8234611744565b6040519091505f90339083908381818185875af1925050503d805f8114610b0e576040519150601f19603f3d011682016040523d82523d5f602084013e610b13565b606091505b5050905080610b545760405162461bcd60e51b815260206004820152600d60248201526c1499599d5b990819985a5b1959609a1b6044820152606401610529565b50505b505050565b5f80546040516361773e5360e11b81526001600160a01b0384811660048301528392169063c2ee7ca6906024016020604051808303815f875af1158015610ba5573d5f803e3d5ffd5b505050506040513d601f19601f82011682018060405250810190610bc991906116ee565b6001600160a01b0384165f9081526001602081905260409091200154909150808211610bf857505f9392505050565b610c028183611744565b949350505050565b60405162461bcd60e51b815260206004820152603660248201527f55736520436f6c6c61746572616c4d616e616765722e77697468647261774554604482015275482829206f722077697468647261774552433230282960501b6064820152608401610529565b600354600160a01b900460ff1615610c9b5760405162461bcd60e51b8152600401610529906116af565b60405162461bcd60e51b815260206004820152602260248201527f55736520436f6c6c61746572616c4d616e616765722e6465706f736974455448604482015261282960f01b6064820152608401610529565b6003546001600160a01b03163314610d185760405162461bcd60e51b815260040161052990611757565b6001600160a01b038116610d3f5760405163e6c4247b60e01b815260040160405180910390fd5b5f80546001600160a01b0319166001600160a01b0392909216919091179055565b6003546001600160a01b03163314610d8a5760405162461bcd60e51b815260040161052990611757565b6003805460ff60a01b1916600160a01b179055565b5f546040516385988d9d60e01b81526001600160a01b03838116600483015260609283929116906385988d9d906024015f60405180830381865afa158015610de9573d5f803e3d5ffd5b505050506040513d5f823e601f3d908101601f19168201604052610e10919081019061184e565b509094909350915050565b600354600160a01b900460ff1615610e455760405162461bcd60e51b8152600401610529906116af565b7f00000000000000000000000000000000000000000000000000000000000000006001600160a01b0316630905f5606040518163ffffffff1660e01b8152600401602060405180830381865afa158015610ea1573d5f803e3d5ffd5b505050506040513d601f19601f82011682018060405250810190610ec591906116cf565b15610ee357604051633907885f60e11b815260040160405180910390fd5b80805f03610f0457604051631f2a200560e01b815260040160405180910390fd5b335f818152600160205260408082208254915163074ba14960e31b81526004810194909452926001600160a01b0390911690633a5d0a48906024016020604051808303815f875af1158015610f5b573d5f803e3d5ffd5b505050506040513d601f19601f82011682018060405250810190610f7f91906116ee565b9050805f03610fa157604051633a23d82560e01b815260040160405180910390fd5b5f80546040516361773e5360e11b81523360048201526001600160a01b039091169063c2ee7ca6906024016020604051808303815f875af1158015610fe8573d5f803e3d5ffd5b505050506040513d601f19601f8201168201806040525081019061100c91906116ee565b6040516341976e0960e01b815273eeeeeeeeeeeeeeeeeeeeeeeeeeeeeeeeeeeeeeee60048201529091505f906001600160a01b037f000000000000000000000000000000000000000000000000000000000000000016906341976e09906024016020604051808303815f875af1158015611088573d5f803e3d5ffd5b505050506040513d601f19601f820116820180604052508101906110ac91906116ee565b90505f81136110cd5760405162461bcd60e51b815260040161052990611705565b5f6110dc85600101548361150b565b90505f6110e9888461150b565b90505f6110f6828461192f565b905084811115611119576040516364271c5760e11b815260040160405180910390fd5b88876001015f82825461112c919061192f565b925050819055504287600201819055508860025f82825461114d919061192f565b925050819055505f61116388600101548661150b565b90505f611170888361157a565b604080518d81526020810183905291925033917feae9cfbc77fdd40ca899f36b608256063b2bc9d8178b0220f7ad513e178d6730910160405180910390a26040515f9033908d908381818185875af1925050503d805f81146111ed576040519150601f19603f3d011682016040523d82523d5f602084013e6111f2565b606091505b50509050806112395760405162461bcd60e51b8152602060048201526013602482015272115512081d1c985b9cd9995c8819985a5b1959606a1b6044820152606401610529565b505050505050505050505050565b6003546001600160a01b031633146112715760405162461bcd60e51b815260040161052990611757565b60035460405147915f916001600160a01b039091169083908381818185875af1925050503d805f81146112bf576040519150601f19603f3d011682016040523d82523d5f602084013e6112c4565b606091505b50509050806113155760405162461bcd60e51b815260206004820152601960248201527f456d657267656e6379207769746864726177206661696c6564000000000000006044820152606401610529565b5050565b6003546001600160a01b031633146113435760405162461bcd60e51b815260040161052990611757565b6001600160a01b03811661136a5760405163e6c4247b60e01b815260040160405180910390fd5b600380546001600160a01b0319166001600160a01b0392909216919091179055565b6001600160a01b0381165f90815260016020819052604082209081015482036113b857505f1992915050565b5f805460405163074ba14960e31b81526001600160a01b03868116600483015290911690633a5d0a48906024016020604051808303815f875af1158015611401573d5f803e3d5ffd5b505050506040513d601f19601f8201168201806040525081019061142591906116ee565b6040516341976e0960e01b815273eeeeeeeeeeeeeeeeeeeeeeeeeeeeeeeeeeeeeeee60048201529091505f906001600160a01b037f000000000000000000000000000000000000000000000000000000000000000016906341976e09906024016020604051808303815f875af11580156114a1573d5f803e3d5ffd5b505050506040513d601f19601f820116820180604052508101906114c591906116ee565b90505f81136114e65760405162461bcd60e51b815260040161052990611705565b5f6114f584600101548361150b565b9050611501838261157a565b9695505050505050565b5f670de0b6b3a764000061151f8385611942565b6115299190611959565b9392505050565b5f815f0361153f57505f61096b565b5f61154a848461157a565b606411949350505050565b5f806064611564600a85611942565b61156e9190611959565b9050611529818461192f565b5f815f0361158a57505f1961096b565b825f036115aa576040516341becd2f60e11b815260040160405180910390fd5b5f60646115b8605386611942565b6115c29190611959565b90505f836115d1836064611942565b6115db9190611959565b95945050505050565b6001600160a01b03811681146115f8575f80fd5b50565b5f6020828403121561160b575f80fd5b8135611529816115e4565b5f60208284031215611626575f80fd5b5035919050565b604080825283519082018190525f906020906060840190828701845b8281101561166e5781516001600160a01b031684529284019290840190600101611649565b505050838103828501528451808252858301918301905f5b818110156116a257835183529284019291840191600101611686565b5090979650505050505050565b60208082526006908201526514185d5cd95960d21b604082015260600190565b5f602082840312156116df575f80fd5b81518015158114611529575f80fd5b5f602082840312156116fe575f80fd5b5051919050565b602080825260119082015270496e76616c69642045544820707269636560781b604082015260600190565b634e487b7160e01b5f52601160045260245ffd5b8181038181111561096b5761096b611730565b6020808252600990820152682737ba1037bbb732b960b91b604082015260600190565b634e487b7160e01b5f52604160045260245ffd5b604051601f8201601f1916810167ffffffffffffffff811182821017156117b7576117b761177a565b604052919050565b5f67ffffffffffffffff8211156117d8576117d861177a565b5060051b60200190565b5f82601f8301126117f1575f80fd5b81516020611806611801836117bf565b61178e565b8083825260208201915060208460051b870101935086841115611827575f80fd5b602086015b84811015611843578051835291830191830161182c565b509695505050505050565b5f805f60608486031215611860575f80fd5b835167ffffffffffffffff80821115611877575f80fd5b818601915086601f83011261188a575f80fd5b8151602061189a611801836117bf565b82815260059290921b8401810191818101908a8411156118b8575f80fd5b948201945b838610156118df5785516118d0816115e4565b825294820194908201906118bd565b918901519197509093505050808211156118f7575f80fd5b611903878388016117e2565b93506040860151915080821115611918575f80fd5b50611925868287016117e2565b9150509250925092565b8082018082111561096b5761096b611730565b808202811582820484141761096b5761096b611730565b5f8261197357634e487b7160e01b5f52601260045260245ffd5b50049056fea264697066735822122029018828c101d0801f70d8882b5ddb81ac7c8828bd139424482226ef2e02679e64736f6c63430008180033","linkReferences":{}},"methodIdentifiers":{"borrow(uint256)":"c5ebeaec","collateralManager()":"23be345c","depositCollateral()":"6f758140","emergencyWithdraw()":"db2e21bc","getBorrowedAmount(address)":"b9f2c7b5","getCollateralValueUSD(address)":"3a5d0a48","getCurrentBorrowRate()":"3f0c4392","getHealthFactor(address)":"fe6bcd7c","getMaxBorrowAmount(address)":"4b79cb0f","getPosition(address)":"16c19739","getUserCollaterals(address)":"85988d9d","liquidate(address)":"2f865568","oracle()":"7dc0d1d0","owner()":"8da5cb5b","pause()":"8456cb59","paused()":"5c975abb","positions(address)":"55f57510","repay()":"402d8883","setCollateralManager(address)":"842a05d4","totalBorrowed()":"4c19386c","transferOwnership(address)":"f2fde38b","unpause()":"3f4ba83a","withdrawCollateral(uint256)":"6112fe2e"},"id":1}