{"abi":[{"type":"constructor","inputs":[{"name":"_registry","type":"address","internalType":"address"}],"stateMutability":"nonpayable"},{"type":"function","name":"BASIS_POINTS","inputs":[],"outputs":[{"name":"","type":"uint256","internalType":"uint256"}],"stateMutability":"view"},{"type":"function","name":"CACHE_DURATION","inputs":[],"outputs":[{"name":"","type":"uint256","internalType":"uint256"}],"stateMutability":"view"},{"type":"function","name":"CRITICAL_DEVIATION","inputs":[],"outputs":[{"name":"","type":"uint256","internalType":"uint256"}],"stateMutability":"view"},{"type":"function","name":"MAX_DEVIATION","inputs":[],"outputs":[{"name":"","type":"uint256","internalType":"uint256"}],"stateMutability":"view"},{"type":"function","name":"clearCache","inputs":[{"name":"asset","type":"address","internalType":"address"}],"outputs":[],"stateMutability":"nonpayable"},{"type":"function","name":"clearDeviation","inputs":[{"name":"asset","type":"address","internalType":"address"}],"outputs":[],"stateMutability":"nonpayable"},{"type":"function","name":"deviationChecksEnabled","inputs":[],"outputs":[{"name":"","type":"bool","internalType":"bool"}],"stateMutability":"view"},{"type":"function","name":"deviations","inputs":[{"name":"","type":"address","internalType":"address"}],"outputs":[{"name":"hasDeviation","type":"bool","internalType":"bool"},{"name":"deviationBps","type":"uint256","internalType":"uint256"},{"name":"primaryPrice","type":"int256","internalType":"int256"},{"name":"fallbackPrice","type":"int256","internalType":"int256"},{"name":"timestamp","type":"uint256","internalType":"uint256"}],"stateMutability":"view"},{"type":"function","name":"emergencyMode","inputs":[],"outputs":[{"name":"","type":"bool","internalType":"bool"}],"stateMutability":"view"},{"type":"function","name":"getCachedPrice","inputs":[{"name":"asset","type":"address","internalType":"address"}],"outputs":[{"name":"price","type":"int256","internalType":"int256"},{"name":"updatedAt","type":"uint256","internalType":"uint256"},{"name":"source","type":"string","internalType":"string"}],"stateMutability":"view"},{"type":"function","name":"getDeviationInfo","inputs":[{"name":"asset","type":"address","internalType":"address"}],"outputs":[{"name":"hasDeviation","type":"bool","internalType":"bool"},{"name":"deviationBps","type":"uint256","internalType":"uint256"},{"name":"primaryPrice","type":"int256","internalType":"int256"},{"name":"fallbackPrice","type":"int256","internalType":"int256"}],"stateMutability":"view"},{"type":"function","name":"getPrice","inputs":[{"name":"asset","type":"address","internalType":"address"}],"outputs":[{"name":"","type":"int256","internalType":"int256"}],"stateMutability":"nonpayable"},{"type":"function","name":"owner","inputs":[],"outputs":[{"name":"","type":"address","internalType":"address"}],"stateMutability":"view"},{"type":"function","name":"priceCache","inputs":[{"name":"","type":"address","internalType":"address"}],"outputs":[{"name":"price","type":"int256","internalType":"int256"},{"name":"updatedAt","type":"uint256","internalType":"uint256"},{"name":"source","type":"string","internalType":"string"}],"stateMutability":"view"},{"type":"function","name":"registry","inputs":[],"outputs":[{"name":"","type":"address","internalType":"contract PriceRegistry"}],"stateMutability":"view"},{"type":"function","name":"setDeviationChecks","inputs":[{"name":"_enabled","type":"bool","internalType":"bool"}],"outputs":[],"stateMutability":"nonpayable"},{"type":"function","name":"setEmergencyMode","inputs":[{"name":"_enabled","type":"bool","internalType":"bool"},{"name":"reason","type":"string","internalType":"string"}],"outputs":[],"stateMutability":"nonpayable"},{"type":"function","name":"transferOwnership","inputs":[{"name":"newOwner","type":"address","internalType":"address"}],"outputs":[],"stateMutability":"nonpayable"},{"type":"event","name":"CacheCleared","inputs":[{"name":"asset","type":"address","indexed":true,"internalType":"address"}],"anonymous":false},{"type":"event","name":"CriticalDeviation","inputs":[{"name":"asset","type":"address","indexed":true,"internalType":"address"},{"name":"primaryPrice","type":"int256","indexed":false,"internalType":"int256"},{"name":"fallbackPrice","type":"int256","indexed":false,"internalType":"int256"},{"name":"deviationBps","type":"uint256","indexed":false,"internalType":"uint256"}],"anonymous":false},{"type":"event","name":"DeviationWarning","inputs":[{"name":"asset","type":"address","indexed":true,"internalType":"address"},{"name":"primaryPrice","type":"int256","indexed":false,"internalType":"int256"},{"name":"fallbackPrice","type":"int256","indexed":false,"internalType":"int256"},{"name":"deviationBps","type":"uint256","indexed":false,"internalType":"uint256"}],"anonymous":false},{"type":"event","name":"EmergencyModeSet","inputs":[{"name":"enabled","type":"bool","indexed":false,"internalType":"bool"},{"name":"reason","type":"string","indexed":false,"internalType":"string"}],"anonymous":false},{"type":"event","name":"FallbackUsed","inputs":[{"name":"asset","type":"address","indexed":true,"internalType":"address"},{"name":"fallbackPrice","type":"int256","indexed":false,"internalType":"int256"},{"name":"deviationBps","type":"uint256","indexed":false,"internalType":"uint256"},{"name":"reason","type":"string","indexed":false,"internalType":"string"}],"anonymous":false},{"type":"event","name":"PriceUpdated","inputs":[{"name":"asset","type":"address","indexed":true,"internalType":"address"},{"name":"price","type":"int256","indexed":false,"internalType":"int256"},{"name":"source","type":"string","indexed":false,"internalType":"string"},{"name":"timestamp","type":"uint256","indexed":false,"internalType":"uint256"}],"anonymous":false},{"type":"event","name":"PricesCached","inputs":[{"name":"asset","type":"address","indexed":true,"internalType":"address"},{"name":"primaryPrice","type":"int256","indexed":false,"internalType":"int256"},{"name":"fallbackPrice","type":"int256","indexed":false,"internalType":"int256"}],"anonymous":false},{"type":"error","name":"AllProvidersFailed","inputs":[]},{"type":"error","name":"CacheStale","inputs":[]},{"type":"error","name":"EmergencyModeActive","inputs":[]},{"type":"error","name":"InvalidAddress","inputs":[]},{"type":"error","name":"Unauthorized","inputs":[]}],"bytecode":{"object":"0x60a06040526002805461ff00191661010017905534801561001e575f80fd5b506040516117b73803806117b783398101604081905261003d9161008e565b6001600160a01b0381166100645760405163e6c4247b60e01b815260040160405180910390fd5b6001600160a01b03166080526002805462010000600160b01b0319163362010000021790556100bb565b5f6020828403121561009e575f80fd5b81516001600160a01b03811681146100b4575f80fd5b9392505050565b6080516116d66100e15f395f81816102540152818161080b015261089801526116d65ff3fe608060405234801561000f575f80fd5b5060043610610111575f3560e01c80638166fcc71161009e578063c0eeb5c31161006e578063c0eeb5c3146102d5578063c2dcb6e414610340578063c316c57a14610349578063e1f1c4a71461035c578063f2fde38b14610365575f80fd5b80638166fcc71461028e5780638da5cb5b146102a15780638ea125c2146102ba578063b05f233a146102cc575f80fd5b80633268567a116100e45780633268567a146101ff57806341976e091461021257806369156d1e146102335780636c085cde146102465780637b1039991461024f575f80fd5b806304f02dcd146101155780630905f5601461012a578063258ca0ef1461014c5780632a92547d146101dd575b5f80fd5b6101286101233660046111bb565b610378565b005b6002546101379060ff1681565b60405190151581526020015b60405180910390f35b6101bb61015a36600461124b565b6001600160a01b03165f90815260016020818152604092839020835160a081018552815460ff161515808252938201549281018390526002820154948101859052600382015460608201819052600490920154608090910152919390929190565b6040805194151585526020850193909352918301526060820152608001610143565b6101f06101eb36600461124b565b6103f7565b604051610143939291906112ba565b6101f061020d36600461124b565b61049f565b61022561022036600461124b565b6105e5565b604051908152602001610143565b61012861024136600461124b565b61061c565b6102256103e881565b6102767f000000000000000000000000000000000000000000000000000000000000000081565b6040516001600160a01b039091168152602001610143565b61012861029c3660046112e1565b610686565b600254610276906201000090046001600160a01b031681565b60025461013790610100900460ff1681565b6102256101f481565b6103166102e336600461124b565b600160208190525f91825260409091208054918101546002820154600383015460049093015460ff909416939192909185565b6040805195151586526020860194909452928401919091526060830152608082015260a001610143565b61022561012c81565b61012861035736600461124b565b6106d0565b61022561271081565b61012861037336600461124b565b610767565b6002546201000090046001600160a01b031633146103a8576040516282b42960e81b815260040160405180910390fd5b6002805460ff19168415151790556040517f9f47a61c5261ab0888a3ca6ed8b35ec669cbea68968022a55ab842e3a1619d21906103ea908590859085906112fa565b60405180910390a1505050565b5f602081905290815260409020805460018201546002830180549293919261041e90611331565b80601f016020809104026020016040519081016040528092919081815260200182805461044a90611331565b80156104955780601f1061046c57610100808354040283529160200191610495565b820191905f5260205f20905b81548152906001019060200180831161047857829003601f168201915b5050505050905083565b5f8060605f805f866001600160a01b03166001600160a01b031681526020019081526020015f206040518060600160405290815f8201548152602001600182015481526020016002820180546104f490611331565b80601f016020809104026020016040519081016040528092919081815260200182805461052090611331565b801561056b5780601f106105425761010080835404028352916020019161056b565b820191905f5260205f20905b81548152906001019060200180831161054e57829003601f168201915b505050505081525050905080602001515f0361059a5760405163926a0d6360e01b815260040160405180910390fd5b61012c8160200151426105ad919061137d565b11156105cc5760405163926a0d6360e01b815260040160405180910390fd5b8051602082015160409092015190969195509350915050565b6002545f9060ff161561060b576040516319e1bef560e01b815260040160405180910390fd5b610614826107e8565b90505b919050565b6002546201000090046001600160a01b0316331461064c576040516282b42960e81b815260040160405180910390fd5b6001600160a01b03165f9081526001602081905260408220805460ff19168155908101829055600281018290556003810182905560040155565b6002546201000090046001600160a01b031633146106b6576040516282b42960e81b815260040160405180910390fd5b600280549115156101000261ff0019909216919091179055565b6002546201000090046001600160a01b03163314610700576040516282b42960e81b815260040160405180910390fd5b6001600160a01b0381165f908152602081905260408120818155600181018290559061072f600283018261115a565b50506040516001600160a01b038216907fc18cced4ef47e8fff8412a99bc09b8afb2f057f42c940accd159af4f54529858905f90a250565b6002546201000090046001600160a01b03163314610797576040516282b42960e81b815260040160405180910390fd5b6001600160a01b0381166107be5760405163e6c4247b60e01b815260040160405180910390fd5b600280546001600160a01b03909216620100000262010000600160b01b0319909216919091179055565b6040516395eea71b60e01b81526001600160a01b0382811660048301525f9182917f000000000000000000000000000000000000000000000000000000000000000016906395eea71b90602401602060405180830381865afa158015610850573d5f803e3d5ffd5b505050506040513d601f19601f820116820180604052508101906108749190611390565b60405163db09c3fd60e01b81526001600160a01b0385811660048301529192505f917f0000000000000000000000000000000000000000000000000000000000000000169063db09c3fd90602401602060405180830381865afa1580156108dd573d5f803e3d5ffd5b505050506040513d601f19601f820116820180604052508101906109019190611390565b90505f805f9050836001600160a01b03166398d5fdca6040518163ffffffff1660e01b8152600401602060405180830381865afa925050508015610962575060408051601f3d908101601f1916820190925261095f918101906113ab565b60015b15610979575f81131561097757809250600191505b505b5f806001600160a01b038516156109fb57846001600160a01b03166398d5fdca6040518163ffffffff1660e01b8152600401602060405180830381865afa9250505080156109e4575060408051601f3d908101601f191682019092526109e1918101906113ab565b60015b156109fb575f8113156109f957809250600191505b505b5f6060848015610a085750825b8015610a1b5750600254610100900460ff165b15610ea2575f610a2b87866110fa565b90506040518060a001604052806001151581526020018281526020018881526020018681526020014281525060015f8d6001600160a01b03166001600160a01b031681526020019081526020015f205f820151815f015f6101000a81548160ff021916908315150217905550602082015181600101556040820151816002015560608201518160030155608082015181600401559050508a6001600160a01b03167f44e24702ad8e7458e1bffa9c761c076d3eec4c70b31628f130609bbb5fdbcd098887604051610b06929190918252602082015260400190565b60405180910390a26103e88110610ce257849250876001600160a01b0316637284e4166040518163ffffffff1660e01b81526004015f60405180830381865afa158015610b55573d5f803e3d5ffd5b505050506040513d5f823e601f3d908101601f19168201604052610b7c91908101906113d6565b604051602001610b8c919061147e565b60408051808303601f1901815282825260028054600160ff1990911681179091558352602083018290526021838301527f437269746963616c20707269636520646576696174696f6e20646574656374656060840152601960fa1b608084015290519093507f9f47a61c5261ab0888a3ca6ed8b35ec669cbea68968022a55ab842e3a1619d219181900360a00190a160408051888152602081018790529081018290526001600160a01b038c16907fbdfd95be7fef5b172e97cc89bea210830903af7c4840a9aae9b280a66fbe28c09060600160405180910390a28a6001600160a01b03167f34841fc9de550e3be4b4cfebf99dd51f6f437e2461a40b4b2e951acd89d3a7538683604051610cd592919091825260208201526060604082018190526012908201527121b934ba34b1b0b6103232bb34b0ba34b7b760711b608082015260a00190565b60405180910390a2610e9c565b6101f4811115610e3457849250876001600160a01b0316637284e4166040518163ffffffff1660e01b81526004015f60405180830381865afa158015610d2a573d5f803e3d5ffd5b505050506040513d5f823e601f3d908101601f19168201604052610d5191908101906113d6565b604051602001610d6191906114ad565b60408051601f198184030181528282528983526020830188905290820183905292506001600160a01b038c16907f73310406b20135a600abc265b901076f16fa86b3092d89802053ed414d060c909060600160405180910390a28a6001600160a01b03167f34841fc9de550e3be4b4cfebf99dd51f6f437e2461a40b4b2e951acd89d3a7538683604051610cd59291909182526020820152606060408201819052601c908201527f446576696174696f6e207468726573686f6c6420657863656564656400000000608082015260a00190565b869250886001600160a01b0316637284e4166040518163ffffffff1660e01b81526004015f60405180830381865afa158015610e72573d5f803e3d5ffd5b505050506040513d5f823e601f3d908101601f19168201604052610e9991908101906113d6565b91505b50611054565b8415610f3357859150876001600160a01b0316637284e4166040518163ffffffff1660e01b81526004015f60405180830381865afa158015610ee6573d5f803e3d5ffd5b505050506040513d5f823e601f3d908101601f19168201604052610f0d91908101906113d6565b6001600160a01b038b165f908152600160205260409020805460ff191690559050611054565b821561103b57839150866001600160a01b0316637284e4166040518163ffffffff1660e01b81526004015f60405180830381865afa158015610f77573d5f803e3d5ffd5b505050506040513d5f823e601f3d908101601f19168201604052610f9e91908101906113d6565b604051602001610fae91906114dc565b60408051808303601f190181528282528683525f602084015260608383018190526017908401527f5072696d6172792070726f7669646572206661696c6564000000000000000000608084015290519092506001600160a01b038c16917f34841fc9de550e3be4b4cfebf99dd51f6f437e2461a40b4b2e951acd89d3a753919081900360a00190a2611054565b604051630c8e299f60e11b815260040160405180910390fd5b604080516060810182528381524260208083019182528284018581526001600160a01b038f165f908152918290529390208251815590516001820155915190919060028201906110a4908261155c565b50905050896001600160a01b03167ff8aa0025f2cd8baa07167193ffa63120ac17c3b8dae9ed27a039a82ef3aebb358383426040516110e59392919061161c565b60405180910390a25098975050505050505050565b5f821580611106575081155b156111145750612710611154565b5f82841361112b576111268484611644565b611135565b6111358385611644565b90505f846111456127108461166a565b61114f9190611681565b925050505b92915050565b50805461116690611331565b5f825580601f10611175575050565b601f0160209004905f5260205f20908101906111919190611194565b50565b5b808211156111a8575f8155600101611195565b5090565b80358015158114610617575f80fd5b5f805f604084860312156111cd575f80fd5b6111d6846111ac565b9250602084013567ffffffffffffffff808211156111f2575f80fd5b818601915086601f830112611205575f80fd5b813581811115611213575f80fd5b876020828501011115611224575f80fd5b6020830194508093505050509250925092565b6001600160a01b0381168114611191575f80fd5b5f6020828403121561125b575f80fd5b813561126681611237565b9392505050565b5f5b8381101561128757818101518382015260200161126f565b50505f910152565b5f81518084526112a681602086016020860161126d565b601f01601f19169290920160200192915050565b838152826020820152606060408201525f6112d8606083018461128f565b95945050505050565b5f602082840312156112f1575f80fd5b611266826111ac565b831515815260406020820152816040820152818360608301375f818301606090810191909152601f909201601f1916010192915050565b600181811c9082168061134557607f821691505b60208210810361136357634e487b7160e01b5f52602260045260245ffd5b50919050565b634e487b7160e01b5f52601160045260245ffd5b8181038181111561115457611154611369565b5f602082840312156113a0575f80fd5b815161126681611237565b5f602082840312156113bb575f80fd5b5051919050565b634e487b7160e01b5f52604160045260245ffd5b5f602082840312156113e6575f80fd5b815167ffffffffffffffff808211156113fd575f80fd5b818401915084601f830112611410575f80fd5b815181811115611422576114226113c2565b604051601f8201601f19908116603f0116810190838211818310171561144a5761144a6113c2565b81604052828152876020848701011115611462575f80fd5b61147383602083016020880161126d565b979650505050505050565b5f825161148f81846020870161126d565b6b2028454d455247454e43592960a01b920191825250600c01919050565b5f82516114be81846020870161126d565b6b2028444556494154494f4e2960a01b920191825250600c01919050565b5f82516114ed81846020870161126d565b7020285052494d415259204641494c45442960781b920191825250601101919050565b601f82111561155757805f5260205f20601f840160051c810160208510156115355750805b601f840160051c820191505b81811015611554575f8155600101611541565b50505b505050565b815167ffffffffffffffff811115611576576115766113c2565b61158a816115848454611331565b84611510565b602080601f8311600181146115bd575f84156115a65750858301515b5f19600386901b1c1916600185901b178555611614565b5f85815260208120601f198616915b828110156115eb578886015182559484019460019091019084016115cc565b508582101561160857878501515f19600388901b60f8161c191681555b505060018460011b0185555b505050505050565b838152606060208201525f611634606083018561128f565b9050826040830152949350505050565b8181035f83128015838313168383128216171561166357611663611369565b5092915050565b808202811582820484141761115457611154611369565b5f8261169b57634e487b7160e01b5f52601260045260245ffd5b50049056fea2646970667358221220845b9aa34142e23d6889a332d47164a0e8a7e406773859969258e2225f33084964736f6c63430008180033","linkReferences":{}},"methodIdentifiers":{"BASIS_POINTS()":"e1f1c4a7","CACHE_DURATION()":"c2dcb6e4","CRITICAL_DEVIATION()":"6c085cde","MAX_DEVIATION()":"b05f233a","clearCache(address)":"c316c57a","clearDeviation(address)":"69156d1e","deviationChecksEnabled()":"8ea125c2","deviations(address)":"c0eeb5c3","emergencyMode()":"0905f560","getCachedPrice(address)":"3268567a","getDeviationInfo(address)":"258ca0ef","getPrice(address)":"41976e09","owner()":"8da5cb5b","priceCache(address)":"2a92547d","registry()":"7b103999","setDeviationChecks(bool)":"8166fcc7","setEmergencyMode(bool,string)":"04f02dcd","transferOwnership(address)":"f2fde38b"},"id":2}