{"abi":[{"type":"constructor","inputs":[{"name":"_oracle","type":"address","internalType":"address"},{"name":"_collateralManager","type":"address","internalType":"address"}],"stateMutability":"nonpayable"},{"type":"receive","stateMutability":"payable"},{"type":"function","name":"borrow","inputs":[{"name":"amount","type":"uint256","internalType":"uint256"}],"outputs":[],"stateMutability":"nonpayable"},{"type":"function","name":"collateralManager","inputs":[],"outputs":[{"name":"","type":"address","internalType":"contract CollateralManager"}],"stateMutability":"view"},{"type":"function","name":"depositCollateral","inputs":[],"outputs":[],"stateMutability":"payable"},{"type":"function","name":"emergencyWithdraw","inputs":[],"outputs":[],"stateMutability":"nonpayable"},{"type":"function","name":"getBorrowedAmount","inputs":[{"name":"user","type":"address","internalType":"address"}],"outputs":[{"name":"","type":"uint256","internalType":"uint256"}],"stateMutability":"view"},{"type":"function","name":"getCollateralValueUSD","inputs":[{"name":"user","type":"address","internalType":"address"}],"outputs":[{"name":"","type":"uint256","internalType":"uint256"}],"stateMutability":"nonpayable"},{"type":"function","name":"getCurrentBorrowRate","inputs":[],"outputs":[{"name":"","type":"uint256","internalType":"uint256"}],"stateMutability":"pure"},{"type":"function","name":"getHealthFactor","inputs":[{"name":"user","type":"address","internalType":"address"}],"outputs":[{"name":"","type":"uint256","internalType":"uint256"}],"stateMutability":"nonpayable"},{"type":"function","name":"getMaxBorrowAmount","inputs":[{"name":"user","type":"address","internalType":"address"}],"outputs":[{"name":"","type":"uint256","internalType":"uint256"}],"stateMutability":"nonpayable"},{"type":"function","name":"getPosition","inputs":[{"name":"user","type":"address","internalType":"address"}],"outputs":[{"name":"","type":"tuple","internalType":"struct ILendingPool.Position","components":[{"name":"collateralAmount","type":"uint256","internalType":"uint256"},{"name":"borrowedAmount","type":"uint256","internalType":"uint256"},{"name":"lastInterestUpdate","type":"uint256","internalType":"uint256"},{"name":"accumulatedInterest","type":"uint256","internalType":"uint256"}]}],"stateMutability":"view"},{"type":"function","name":"getUserCollaterals","inputs":[{"name":"user","type":"address","internalType":"address"}],"outputs":[{"name":"assets","type":"address[]","internalType":"address[]"},{"name":"amounts","type":"uint256[]","internalType":"uint256[]"}],"stateMutability":"view"},{"type":"function","name":"liquidate","inputs":[{"name":"user","type":"address","internalType":"address"}],"outputs":[],"stateMutability":"payable"},{"type":"function","name":"oracle","inputs":[],"outputs":[{"name":"","type":"address","internalType":"contract OracleAggregator"}],"stateMutability":"view"},{"type":"function","name":"owner","inputs":[],"outputs":[{"name":"","type":"address","internalType":"address"}],"stateMutability":"view"},{"type":"function","name":"pause","inputs":[],"outputs":[],"stateMutability":"nonpayable"},{"type":"function","name":"paused","inputs":[],"outputs":[{"name":"","type":"bool","internalType":"bool"}],"stateMutability":"view"},{"type":"function","name":"positions","inputs":[{"name":"","type":"address","internalType":"address"}],"outputs":[{"name":"collateralAmount","type":"uint256","internalType":"uint256"},{"name":"borrowedAmount","type":"uint256","internalType":"uint256"},{"name":"lastInterestUpdate","type":"uint256","internalType":"uint256"},{"name":"accumulatedInterest","type":"uint256","internalType":"uint256"}],"stateMutability":"view"},{"type":"function","name":"repay","inputs":[],"outputs":[],"stateMutability":"payable"},{"type":"function","name":"setCollateralManager","inputs":[{"name":"_manager","type":"address","internalType":"address"}],"outputs":[],"stateMutability":"nonpayable"},{"type":"function","name":"totalBorrowed","inputs":[],"outputs":[{"name":"","type":"uint256","internalType":"uint256"}],"stateMutability":"view"},{"type":"function","name":"transferOwnership","inputs":[{"name":"newOwner","type":"address","internalType":"address"}],"outputs":[],"stateMutability":"nonpayable"},{"type":"function","name":"unpause","inputs":[],"outputs":[],"stateMutability":"nonpayable"},{"type":"function","name":"withdrawCollateral","inputs":[{"name":"","type":"uint256","internalType":"uint256"}],"outputs":[],"stateMutability":"pure"},{"type":"event","name":"Borrowed","inputs":[{"name":"user","type":"address","indexed":true,"internalType":"address"},{"name":"amount","type":"uint256","indexed":false,"internalType":"uint256"},{"name":"healthFactor","type":"uint256","indexed":false,"internalType":"uint256"}],"anonymous":false},{"type":"event","name":"CollateralDeposited","inputs":[{"name":"user","type":"address","indexed":true,"internalType":"address"},{"name":"amount","type":"uint256","indexed":false,"internalType":"uint256"},{"name":"timestamp","type":"uint256","indexed":false,"internalType":"uint256"}],"anonymous":false},{"type":"event","name":"CollateralWithdrawn","inputs":[{"name":"user","type":"address","indexed":true,"internalType":"address"},{"name":"amount","type":"uint256","indexed":false,"internalType":"uint256"}],"anonymous":false},{"type":"event","name":"InterestAccrued","inputs":[{"name":"user","type":"address","indexed":true,"internalType":"address"},{"name":"interestAmount","type":"uint256","indexed":false,"internalType":"uint256"}],"anonymous":false},{"type":"event","name":"Liquidated","inputs":[{"name":"user","type":"address","indexed":true,"internalType":"address"},{"name":"liquidator","type":"address","indexed":true,"internalType":"address"},{"name":"debtRepaid","type":"uint256","indexed":false,"internalType":"uint256"},{"name":"collateralSeized","type":"uint256","indexed":false,"internalType":"uint256"}],"anonymous":false},{"type":"event","name":"Repaid","inputs":[{"name":"user","type":"address","indexed":true,"internalType":"address"},{"name":"amount","type":"uint256","indexed":false,"internalType":"uint256"},{"name":"remainingDebt","type":"uint256","indexed":false,"internalType":"uint256"}],"anonymous":false},{"type":"error","name":"ExceedsLTV","inputs":[]},{"type":"error","name":"HealthyPosition","inputs":[]},{"type":"error","name":"InsufficientCollateral","inputs":[]},{"type":"error","name":"InvalidAddress","inputs":[]},{"type":"error","name":"InvalidCollateralValue","inputs":[]},{"type":"error","name":"NoDebt","inputs":[]},{"type":"error","name":"OracleEmergencyMode","inputs":[]},{"type":"error","name":"ZeroAmount","inputs":[]}],"bytecode":{"object":"0x60a060405234801562000010575f80fd5b5060405162001808380380620018088339810160408190526200003391620000d5565b6001600160a01b0382166200005b5760405163e6c4247b60e01b815260040160405180910390fd5b6001600160a01b038116620000835760405163e6c4247b60e01b815260040160405180910390fd5b6001600160a01b039182166080525f8054919092166001600160a01b03199182161790915560038054909116331790556200010b565b80516001600160a01b0381168114620000d0575f80fd5b919050565b5f8060408385031215620000e7575f80fd5b620000f283620000b9565b91506200010260208401620000b9565b90509250929050565b6080516116d6620001325f395f8181610349015281816105340152610d7601526116d65ff3fe60806040526004361061013f575f3560e01c80636112fe2e116100b35780638da5cb5b1161006d5780638da5cb5b146103cb578063b9f2c7b5146103ea578063c5ebeaec14610422578063db2e21bc14610441578063f2fde38b14610455578063fe6bcd7c14610474575f80fd5b80636112fe2e146103115780636f758140146103305780637dc0d1d014610338578063842a05d41461036b5780638456cb591461038a57806385988d9d1461039e575f80fd5b80633f4ba83a116101045780633f4ba83a14610230578063402d8883146102445780634b79cb0f1461024c5780634c19386c1461026b57806355f57510146102805780635c975abb146102e1575f80fd5b806316c197391461014a57806323be345c146101a55780632f865568146101db5780633a5d0a48146101f05780633f0c43921461021d575f80fd5b3661014657005b5f80fd5b348015610155575f80fd5b5061016961016436600461134e565b610493565b60405161019c91908151815260208083015190820152604080830151908201526060918201519181019190915260800190565b60405180910390f35b3480156101b0575f80fd5b505f546101c3906001600160a01b031681565b6040516001600160a01b03909116815260200161019c565b6101ee6101e936600461134e565b6104ff565b005b3480156101fb575f80fd5b5061020f61020a36600461134e565b610830565b60405190815260200161019c565b348015610228575f80fd5b5060c861020f565b34801561023b575f80fd5b506101ee6108a3565b6101ee6108dc565b348015610257575f80fd5b5061020f61026636600461134e565b610a8b565b348015610276575f80fd5b5061020f60025481565b34801561028b575f80fd5b506102c161029a36600461134e565b600160208190525f9182526040909120805491810154600282015460039092015490919084565b60408051948552602085019390935291830152606082015260800161019c565b3480156102ec575f80fd5b5060035461030190600160a01b900460ff1681565b604051901515815260200161019c565b34801561031c575f80fd5b506101ee61032b366004611369565b610b39565b6101ee610ba0565b348015610343575f80fd5b506101c37f000000000000000000000000000000000000000000000000000000000000000081565b348015610376575f80fd5b506101ee61038536600461134e565b610c1d565b348015610395575f80fd5b506101ee610c8f565b3480156103a9575f80fd5b506103bd6103b836600461134e565b610cce565b60405161019c929190611380565b3480156103d6575f80fd5b506003546101c3906001600160a01b031681565b3480156103f5575f80fd5b5061020f61040436600461134e565b6001600160a01b03165f908152600160208190526040909120015490565b34801561042d575f80fd5b506101ee61043c366004611369565b610d4a565b34801561044c575f80fd5b506101ee61108e565b348015610460575f80fd5b506101ee61046f36600461134e565b611160565b34801561047f575f80fd5b5061020f61048e36600461134e565b6111d3565b6104ba60405180608001604052805f81526020015f81526020015f81526020015f81525090565b506001600160a01b03165f9081526001602081815260408084208151608081018352948552928301549184019190915260028201549083015260030154606082015290565b600354600160a01b900460ff16156105325760405162461bcd60e51b815260040161052990611402565b60405180910390fd5b7f00000000000000000000000000000000000000000000000000000000000000006001600160a01b0316630905f5606040518163ffffffff1660e01b8152600401602060405180830381865afa15801561058e573d5f803e3d5ffd5b505050506040513d601f19601f820116820180604052508101906105b29190611422565b156105d057604051633907885f60e11b815260040160405180910390fd5b6001600160a01b0381166105f75760405163e6c4247b60e01b815260040160405180910390fd5b6001600160a01b0381165f908152600160208190526040822090810154909103610634576040516308d1fde360e11b815260040160405180910390fd5b5f805460405163074ba14960e31b81526001600160a01b03858116600483015290911690633a5d0a48906024016020604051808303815f875af115801561067d573d5f803e3d5ffd5b505050506040513d601f19601f820116820180604052508101906106a19190611441565b90506106b181836001015461127c565b6106ce576040516332c9fea960e11b815260040160405180910390fd5b60018201543481111561071a5760405162461bcd60e51b8152602060048201526014602482015273125b9cdd59999a58da595b9d081c185e5b595b9d60621b6044820152606401610529565b5f610724826112a1565b90505f84600101819055508160025f828254610740919061146c565b909155505060408051838152602081018390526001600160a01b0387169133917f1f0c6615429d1cdae0dfa233abf91d3b31cdbdd82c8081389832a61e1072f1ea910160405180910390a381341115610829575f61079e833461146c565b6040519091505f90339083908381818185875af1925050503d805f81146107e0576040519150601f19603f3d011682016040523d82523d5f602084013e6107e5565b606091505b50509050806108265760405162461bcd60e51b815260206004820152600d60248201526c1499599d5b990819985a5b1959609a1b6044820152606401610529565b50505b5050505050565b5f805460405163074ba14960e31b81526001600160a01b03848116600483015290911690633a5d0a48906024016020604051808303815f875af1158015610879573d5f803e3d5ffd5b505050506040513d601f19601f8201168201806040525081019061089d9190611441565b92915050565b6003546001600160a01b031633146108cd5760405162461bcd60e51b81526004016105299061147f565b6003805460ff60a01b19169055565b600354600160a01b900460ff16156109065760405162461bcd60e51b815260040161052990611402565b34805f0361092757604051631f2a200560e01b815260040160405180910390fd5b335f90815260016020819052604082209081015490910361095b576040516308d1fde360e11b815260040160405180910390fd5b5f8160010154341161096d5734610973565b81600101545b905080826001015f828254610988919061146c565b925050819055508060025f8282546109a0919061146c565b9091555050600182015460405133917f1b8cd61ed43bec7c6bdad3a18ffee613f99c853d16c50678d248d879e1b43438916109e391858252602082015260400190565b60405180910390a280341115610a86575f6109fe823461146c565b6040519091505f90339083908381818185875af1925050503d805f8114610a40576040519150601f19603f3d011682016040523d82523d5f602084013e610a45565b606091505b50509050806108295760405162461bcd60e51b815260206004820152600d60248201526c1499599d5b990819985a5b1959609a1b6044820152606401610529565b505050565b5f80546040516361773e5360e11b81526001600160a01b0384811660048301528392169063c2ee7ca6906024016020604051808303815f875af1158015610ad4573d5f803e3d5ffd5b505050506040513d601f19601f82011682018060405250810190610af89190611441565b6001600160a01b0384165f9081526001602081905260409091200154909150808211610b2757505f9392505050565b610b31818361146c565b949350505050565b60405162461bcd60e51b815260206004820152603660248201527f55736520436f6c6c61746572616c4d616e616765722e77697468647261774554604482015275482829206f722077697468647261774552433230282960501b6064820152608401610529565b600354600160a01b900460ff1615610bca5760405162461bcd60e51b815260040161052990611402565b60405162461bcd60e51b815260206004820152602260248201527f55736520436f6c6c61746572616c4d616e616765722e6465706f736974455448604482015261282960f01b6064820152608401610529565b6003546001600160a01b03163314610c475760405162461bcd60e51b81526004016105299061147f565b6001600160a01b038116610c6e5760405163e6c4247b60e01b815260040160405180910390fd5b5f80546001600160a01b0319166001600160a01b0392909216919091179055565b6003546001600160a01b03163314610cb95760405162461bcd60e51b81526004016105299061147f565b6003805460ff60a01b1916600160a01b179055565b5f546040516385988d9d60e01b81526001600160a01b03838116600483015260609283929116906385988d9d906024015f60405180830381865afa158015610d18573d5f803e3d5ffd5b505050506040513d5f823e601f3d908101601f19168201604052610d3f9190810190611576565b509094909350915050565b600354600160a01b900460ff1615610d745760405162461bcd60e51b815260040161052990611402565b7f00000000000000000000000000000000000000000000000000000000000000006001600160a01b0316630905f5606040518163ffffffff1660e01b8152600401602060405180830381865afa158015610dd0573d5f803e3d5ffd5b505050506040513d601f19601f82011682018060405250810190610df49190611422565b15610e1257604051633907885f60e11b815260040160405180910390fd5b80805f03610e3357604051631f2a200560e01b815260040160405180910390fd5b335f818152600160205260408082208254915163074ba14960e31b81526004810194909452926001600160a01b0390911690633a5d0a48906024016020604051808303815f875af1158015610e8a573d5f803e3d5ffd5b505050506040513d601f19601f82011682018060405250810190610eae9190611441565b9050805f03610ed057604051633a23d82560e01b815260040160405180910390fd5b5f80546040516361773e5360e11b81523360048201526001600160a01b039091169063c2ee7ca6906024016020604051808303815f875af1158015610f17573d5f803e3d5ffd5b505050506040513d601f19601f82011682018060405250810190610f3b9190611441565b90505f858460010154610f4e9190611657565b905081811115610f71576040516364271c5760e11b815260040160405180910390fd5b85846001015f828254610f849190611657565b925050819055504284600201819055508560025f828254610fa59190611657565b925050819055505f610fbb8486600101546112cd565b604080518981526020810183905291925033917feae9cfbc77fdd40ca899f36b608256063b2bc9d8178b0220f7ad513e178d6730910160405180910390a26040515f90339089908381818185875af1925050503d805f8114611038576040519150601f19603f3d011682016040523d82523d5f602084013e61103d565b606091505b50509050806110845760405162461bcd60e51b8152602060048201526013602482015272115512081d1c985b9cd9995c8819985a5b1959606a1b6044820152606401610529565b5050505050505050565b6003546001600160a01b031633146110b85760405162461bcd60e51b81526004016105299061147f565b60035460405147915f916001600160a01b039091169083908381818185875af1925050503d805f8114611106576040519150601f19603f3d011682016040523d82523d5f602084013e61110b565b606091505b505090508061115c5760405162461bcd60e51b815260206004820152601960248201527f456d657267656e6379207769746864726177206661696c6564000000000000006044820152606401610529565b5050565b6003546001600160a01b0316331461118a5760405162461bcd60e51b81526004016105299061147f565b6001600160a01b0381166111b15760405163e6c4247b60e01b815260040160405180910390fd5b600380546001600160a01b0319166001600160a01b0392909216919091179055565b6001600160a01b0381165f90815260016020819052604082209081015482036111ff57505f1992915050565b5f805460405163074ba14960e31b81526001600160a01b03868116600483015290911690633a5d0a48906024016020604051808303815f875af1158015611248573d5f803e3d5ffd5b505050506040513d601f19601f8201168201806040525081019061126c9190611441565b9050610b318183600101546112cd565b5f815f0361128b57505f61089d565b5f61129684846112cd565b606411949350505050565b5f8060646112b0600a8561166a565b6112ba9190611681565b90506112c68184611657565b9392505050565b5f815f036112dd57505f1961089d565b825f036112fd576040516341becd2f60e11b815260040160405180910390fd5b5f606461130b60538661166a565b6113159190611681565b90505f8361132483606461166a565b61132e9190611681565b95945050505050565b6001600160a01b038116811461134b575f80fd5b50565b5f6020828403121561135e575f80fd5b81356112c681611337565b5f60208284031215611379575f80fd5b5035919050565b604080825283519082018190525f906020906060840190828701845b828110156113c15781516001600160a01b03168452928401929084019060010161139c565b505050838103828501528451808252858301918301905f5b818110156113f5578351835292840192918401916001016113d9565b5090979650505050505050565b60208082526006908201526514185d5cd95960d21b604082015260600190565b5f60208284031215611432575f80fd5b815180151581146112c6575f80fd5b5f60208284031215611451575f80fd5b5051919050565b634e487b7160e01b5f52601160045260245ffd5b8181038181111561089d5761089d611458565b6020808252600990820152682737ba1037bbb732b960b91b604082015260600190565b634e487b7160e01b5f52604160045260245ffd5b604051601f8201601f1916810167ffffffffffffffff811182821017156114df576114df6114a2565b604052919050565b5f67ffffffffffffffff821115611500576115006114a2565b5060051b60200190565b5f82601f830112611519575f80fd5b8151602061152e611529836114e7565b6114b6565b8083825260208201915060208460051b87010193508684111561154f575f80fd5b602086015b8481101561156b5780518352918301918301611554565b509695505050505050565b5f805f60608486031215611588575f80fd5b835167ffffffffffffffff8082111561159f575f80fd5b818601915086601f8301126115b2575f80fd5b815160206115c2611529836114e7565b82815260059290921b8401810191818101908a8411156115e0575f80fd5b948201945b838610156116075785516115f881611337565b825294820194908201906115e5565b9189015191975090935050508082111561161f575f80fd5b61162b8783880161150a565b93506040860151915080821115611640575f80fd5b5061164d8682870161150a565b9150509250925092565b8082018082111561089d5761089d611458565b808202811582820484141761089d5761089d611458565b5f8261169b57634e487b7160e01b5f52601260045260245ffd5b50049056fea26469706673582212209b11f1b7f9f0be562fb4e8f17ce03c03098ebf2bf679642c713453e2f83bf07164736f6c63430008180033","linkReferences":{}},"methodIdentifiers":{"borrow(uint256)":"c5ebeaec","collateralManager()":"23be345c","depositCollateral()":"6f758140","emergencyWithdraw()":"db2e21bc","getBorrowedAmount(address)":"b9f2c7b5","getCollateralValueUSD(address)":"3a5d0a48","getCurrentBorrowRate()":"3f0c4392","getHealthFactor(address)":"fe6bcd7c","getMaxBorrowAmount(address)":"4b79cb0f","getPosition(address)":"16c19739","getUserCollaterals(address)":"85988d9d","liquidate(address)":"2f865568","oracle()":"7dc0d1d0","owner()":"8da5cb5b","pause()":"8456cb59","paused()":"5c975abb","positions(address)":"55f57510","repay()":"402d8883","setCollateralManager(address)":"842a05d4","totalBorrowed()":"4c19386c","transferOwnership(address)":"f2fde38b","unpause()":"3f4ba83a","withdrawCollateral(uint256)":"6112fe2e"},"id":1}