{"abi":[{"type":"constructor","inputs":[],"stateMutability":"nonpayable"},{"type":"function","name":"addAsset","inputs":[{"name":"asset","type":"address","internalType":"address"},{"name":"symbol","type":"string","internalType":"string"},{"name":"primaryProvider","type":"address","internalType":"address"},{"name":"fallbackProvider","type":"address","internalType":"address"},{"name":"decimals_","type":"uint8","internalType":"uint8"}],"outputs":[],"stateMutability":"nonpayable"},{"type":"function","name":"assets","inputs":[{"name":"","type":"address","internalType":"address"}],"outputs":[{"name":"primaryProvider","type":"address","internalType":"address"},{"name":"fallbackProvider","type":"address","internalType":"address"},{"name":"enabled","type":"bool","internalType":"bool"},{"name":"decimals","type":"uint8","internalType":"uint8"},{"name":"symbol","type":"string","internalType":"string"}],"stateMutability":"view"},{"type":"function","name":"decimals","inputs":[{"name":"asset","type":"address","internalType":"address"}],"outputs":[{"name":"","type":"uint8","internalType":"uint8"}],"stateMutability":"view"},{"type":"function","name":"getAssetConfig","inputs":[{"name":"asset","type":"address","internalType":"address"}],"outputs":[{"name":"primaryProvider","type":"address","internalType":"address"},{"name":"fallbackProvider","type":"address","internalType":"address"},{"name":"enabled","type":"bool","internalType":"bool"},{"name":"decimals_","type":"uint8","internalType":"uint8"},{"name":"symbol","type":"string","internalType":"string"}],"stateMutability":"view"},{"type":"function","name":"getFallbackProvider","inputs":[{"name":"asset","type":"address","internalType":"address"}],"outputs":[{"name":"","type":"address","internalType":"address"}],"stateMutability":"view"},{"type":"function","name":"getPrice","inputs":[{"name":"asset","type":"address","internalType":"address"}],"outputs":[{"name":"","type":"int256","internalType":"int256"}],"stateMutability":"view"},{"type":"function","name":"getPrimaryProvider","inputs":[{"name":"asset","type":"address","internalType":"address"}],"outputs":[{"name":"","type":"address","internalType":"address"}],"stateMutability":"view"},{"type":"function","name":"getSupportedAssets","inputs":[],"outputs":[{"name":"","type":"address[]","internalType":"address[]"}],"stateMutability":"view"},{"type":"function","name":"isSupported","inputs":[{"name":"asset","type":"address","internalType":"address"}],"outputs":[{"name":"","type":"bool","internalType":"bool"}],"stateMutability":"view"},{"type":"function","name":"owner","inputs":[],"outputs":[{"name":"","type":"address","internalType":"address"}],"stateMutability":"view"},{"type":"function","name":"setAssetEnabled","inputs":[{"name":"asset","type":"address","internalType":"address"},{"name":"enabled","type":"bool","internalType":"bool"}],"outputs":[],"stateMutability":"nonpayable"},{"type":"function","name":"supportedAssets","inputs":[{"name":"","type":"uint256","internalType":"uint256"}],"outputs":[{"name":"","type":"address","internalType":"address"}],"stateMutability":"view"},{"type":"function","name":"transferOwnership","inputs":[{"name":"newOwner","type":"address","internalType":"address"}],"outputs":[],"stateMutability":"nonpayable"},{"type":"function","name":"updateAsset","inputs":[{"name":"asset","type":"address","internalType":"address"},{"name":"primaryProvider","type":"address","internalType":"address"},{"name":"fallbackProvider","type":"address","internalType":"address"}],"outputs":[],"stateMutability":"nonpayable"},{"type":"function","name":"updateFallbackProvider","inputs":[{"name":"asset","type":"address","internalType":"address"},{"name":"newProvider","type":"address","internalType":"address"}],"outputs":[],"stateMutability":"nonpayable"},{"type":"function","name":"updatePrimaryProvider","inputs":[{"name":"asset","type":"address","internalType":"address"},{"name":"newProvider","type":"address","internalType":"address"}],"outputs":[],"stateMutability":"nonpayable"},{"type":"event","name":"AssetAdded","inputs":[{"name":"asset","type":"address","indexed":true,"internalType":"address"},{"name":"symbol","type":"string","indexed":false,"internalType":"string"},{"name":"primaryProvider","type":"address","indexed":false,"internalType":"address"},{"name":"fallbackProvider","type":"address","indexed":false,"internalType":"address"}],"anonymous":false},{"type":"event","name":"AssetEnabled","inputs":[{"name":"asset","type":"address","indexed":true,"internalType":"address"},{"name":"enabled","type":"bool","indexed":false,"internalType":"bool"}],"anonymous":false},{"type":"event","name":"AssetUpdated","inputs":[{"name":"asset","type":"address","indexed":true,"internalType":"address"},{"name":"primaryProvider","type":"address","indexed":false,"internalType":"address"},{"name":"fallbackProvider","type":"address","indexed":false,"internalType":"address"}],"anonymous":false},{"type":"event","name":"FallbackProviderUpdated","inputs":[{"name":"asset","type":"address","indexed":true,"internalType":"address"},{"name":"newProvider","type":"address","indexed":false,"internalType":"address"}],"anonymous":false},{"type":"event","name":"PrimaryProviderUpdated","inputs":[{"name":"asset","type":"address","indexed":true,"internalType":"address"},{"name":"newProvider","type":"address","indexed":false,"internalType":"address"}],"anonymous":false},{"type":"error","name":"AllProvidersFailed","inputs":[]},{"type":"error","name":"AssetAlreadyExists","inputs":[]},{"type":"error","name":"AssetDisabled","inputs":[]},{"type":"error","name":"AssetNotFound","inputs":[]},{"type":"error","name":"InvalidAddress","inputs":[]},{"type":"error","name":"Unauthorized","inputs":[]}],"bytecode":{"object":"0x608060405234801561000f575f80fd5b50600280546001600160a01b031916331790556113758061002f5f395ff3fe608060405234801561000f575f80fd5b50600436106100fb575f3560e01c806395eea71b11610093578063db09c3fd11610063578063db09c3fd14610265578063e5406dbf14610278578063f11b81881461028d578063f2fde38b146102a0575f80fd5b806395eea71b14610207578063a12b51391461021a578063c68dbb371461022d578063d449a83214610240575f80fd5b8063693c99e5116100ce578063693c99e5146101925780636ec3ab67146101a5578063762a4862146101c95780638da5cb5b146101dc575f80fd5b8063353d6926146100ff57806341976e091461011457806341d83bc41461013a5780634f129c531461014d575b5f80fd5b61011261010d366004610f2d565b6102b3565b005b610127610122366004610fe2565b610507565b6040519081526020015b60405180910390f35b610112610148366004611002565b61075a565b61018261015b366004610fe2565b6001600160a01b03165f90815260208190526040902060010154600160a01b900460ff1690565b6040519015158152602001610131565b6101126101a0366004611033565b610852565b6101b86101b3366004610fe2565b610918565b60405161013195949392919061106c565b6101126101d73660046110e7565b610a41565b6002546101ef906001600160a01b031681565b6040516001600160a01b039091168152602001610131565b6101ef610215366004610fe2565b610b53565b610112610228366004611002565b610bb3565b6101ef61023b366004611127565b610c7f565b61025361024e366004610fe2565b610ca7565b60405160ff9091168152602001610131565b6101ef610273366004610fe2565b610d11565b610280610d74565b604051610131919061113e565b6101b861029b366004610fe2565b610dd4565b6101126102ae366004610fe2565b610e9f565b6002546001600160a01b031633146102dd576040516282b42960e81b815260040160405180910390fd5b6001600160a01b0386166103045760405163e6c4247b60e01b815260040160405180910390fd5b6001600160a01b03831661032b5760405163e6c4247b60e01b815260040160405180910390fd5b6001600160a01b0386165f90815260208190526040902060010154600160a01b900460ff161561036e5760405163dc0d0aab60e01b815260040160405180910390fd5b6040518060a00160405280846001600160a01b03168152602001836001600160a01b031681526020016001151581526020018260ff16815260200186868080601f0160208091040260200160405190810160405280939291908181526020018383808284375f9201829052509390945250506001600160a01b03808a1682526020828152604092839020855181549084166001600160a01b03199091161781559085015160018201805494870151606088015160ff16600160a81b0260ff60a81b19911515600160a01b026001600160a81b03199097169390951692909217949094171691909117909155608083015190915060028201906104709082611222565b50506001805480820182555f919091527fb10e2d527612073b26eecdfd717e6a320cf44b4afac2b0732d9fcbe2b7fa0cf60180546001600160a01b0319166001600160a01b0389169081179091556040519091507fb07b0858d82b8980ddd60fcc170f36bf831bc048f39f684e6c1ad27af2c56648906104f79088908890889088906112e2565b60405180910390a2505050505050565b6001600160a01b038082165f90815260208181526040808320815160a08101835281548616815260018201549586169381019390935260ff600160a01b86048116151592840192909252600160a81b90940416606082015260028301805492938493909160808401916105799061119e565b80601f01602080910402602001604051908101604052809291908181526020018280546105a59061119e565b80156105f05780601f106105c7576101008083540402835291602001916105f0565b820191905f5260205f20905b8154815290600101906020018083116105d357829003601f168201915b5050509190925250508151919250506001600160a01b03166106255760405163470cbf4760e01b815260040160405180910390fd5b806040015161064757604051637c2df00960e11b815260040160405180910390fd5b805f01516001600160a01b03166398d5fdca6040518163ffffffff1660e01b8152600401602060405180830381865afa9250505080156106a4575060408051601f3d908101601f191682019092526106a191810190611328565b60015b156106ba575f8113156106b8579392505050565b505b60208101516001600160a01b0316156107415780602001516001600160a01b03166398d5fdca6040518163ffffffff1660e01b8152600401602060405180830381865afa92505050801561072b575060408051601f3d908101601f1916820190925261072891810190611328565b60015b15610741575f81131561073f579392505050565b505b604051630c8e299f60e11b815260040160405180910390fd5b6002546001600160a01b03163314610784576040516282b42960e81b815260040160405180910390fd5b6001600160a01b0382165f90815260208190526040902060010154600160a01b900460ff166107c65760405163470cbf4760e01b815260040160405180910390fd5b6001600160a01b0381166107ed5760405163e6c4247b60e01b815260040160405180910390fd5b6001600160a01b038281165f818152602081815260409182902080546001600160a01b0319169486169485179055905192835290917f2b13cf2b1891dafac68d1453bf242f91bfcf9f543f5e3428d4eabd8dc365898291015b60405180910390a25050565b6002546001600160a01b0316331461087c576040516282b42960e81b815260040160405180910390fd5b6001600160a01b038281165f90815260208190526040902054166108b35760405163470cbf4760e01b815260040160405180910390fd5b6001600160a01b0382165f81815260208190526040908190206001018054841515600160a01b0260ff60a01b19909116179055517f892da7b7147bce9ab581ddb7e7e650658f454e02b206040115bc12f20426dc429061084690841515815260200190565b6001600160a01b038082165f90815260208181526040808320815160a08101835281548616815260018201549586169381019390935260ff600160a01b86048116151592840192909252600160a81b90940416606082810191909152600284018054939485948594859493859391926080840191906109969061119e565b80601f01602080910402602001604051908101604052809291908181526020018280546109c29061119e565b8015610a0d5780601f106109e457610100808354040283529160200191610a0d565b820191905f5260205f20905b8154815290600101906020018083116109f057829003601f168201915b5050509190925250508151602083015160408401516060850151608090950151929c919b5099509297509550909350505050565b6002546001600160a01b03163314610a6b576040516282b42960e81b815260040160405180910390fd5b6001600160a01b0383165f90815260208190526040902060010154600160a01b900460ff16610aad5760405163470cbf4760e01b815260040160405180910390fd5b6001600160a01b038216610ad45760405163e6c4247b60e01b815260040160405180910390fd5b6001600160a01b038381165f818152602081815260409182902080548786166001600160a01b03199182168117835560019092018054968816969091168617905582519081529081019390935290917ff3726b32110fdc00c1871534f4314a5b6e97a5722a06e1fb36c50aa6e78f8306910160405180910390a2505050565b6001600160a01b0381165f90815260208190526040812060010154600160a01b900460ff16610b9557604051637c2df00960e11b815260040160405180910390fd5b506001600160a01b039081165f908152602081905260409020541690565b6002546001600160a01b03163314610bdd576040516282b42960e81b815260040160405180910390fd5b6001600160a01b0382165f90815260208190526040902060010154600160a01b900460ff16610c1f5760405163470cbf4760e01b815260040160405180910390fd5b6001600160a01b038281165f818152602081815260409182902060010180546001600160a01b0319169486169485179055905192835290917f32232820122bd47f1342b28e4b4900ec8ab84a2656c3abaa823759256b2ebc3f9101610846565b60018181548110610c8e575f80fd5b5f918252602090912001546001600160a01b0316905081565b6001600160a01b0381165f90815260208190526040812060010154600160a01b900460ff16610ce957604051637c2df00960e11b815260040160405180910390fd5b506001600160a01b03165f90815260208190526040902060010154600160a81b900460ff1690565b6001600160a01b0381165f90815260208190526040812060010154600160a01b900460ff16610d5357604051637c2df00960e11b815260040160405180910390fd5b506001600160a01b039081165f908152602081905260409020600101541690565b60606001805480602002602001604051908101604052809291908181526020018280548015610dca57602002820191905f5260205f20905b81546001600160a01b03168152600190910190602001808311610dac575b5050505050905090565b5f602081905290815260409020805460018201546002830180546001600160a01b03938416949383169360ff600160a01b8504811694600160a81b900416929091610e1e9061119e565b80601f0160208091040260200160405190810160405280929190818152602001828054610e4a9061119e565b8015610e955780601f10610e6c57610100808354040283529160200191610e95565b820191905f5260205f20905b815481529060010190602001808311610e7857829003601f168201915b5050505050905085565b6002546001600160a01b03163314610ec9576040516282b42960e81b815260040160405180910390fd5b6001600160a01b038116610ef05760405163e6c4247b60e01b815260040160405180910390fd5b600280546001600160a01b0319166001600160a01b0392909216919091179055565b80356001600160a01b0381168114610f28575f80fd5b919050565b5f805f805f8060a08789031215610f42575f80fd5b610f4b87610f12565b9550602087013567ffffffffffffffff80821115610f67575f80fd5b818901915089601f830112610f7a575f80fd5b813581811115610f88575f80fd5b8a6020828501011115610f99575f80fd5b602083019750809650505050610fb160408801610f12565b9250610fbf60608801610f12565b9150608087013560ff81168114610fd4575f80fd5b809150509295509295509295565b5f60208284031215610ff2575f80fd5b610ffb82610f12565b9392505050565b5f8060408385031215611013575f80fd5b61101c83610f12565b915061102a60208401610f12565b90509250929050565b5f8060408385031215611044575f80fd5b61104d83610f12565b915060208301358015158114611061575f80fd5b809150509250929050565b5f60018060a01b03808816835260208188166020850152861515604085015260ff8616606085015260a06080850152845191508160a08501525f5b828110156110c35785810182015185820160c0015281016110a7565b50505f60c0828501015260c0601f19601f8301168401019150509695505050505050565b5f805f606084860312156110f9575f80fd5b61110284610f12565b925061111060208501610f12565b915061111e60408501610f12565b90509250925092565b5f60208284031215611137575f80fd5b5035919050565b602080825282518282018190525f9190848201906040850190845b8181101561117e5783516001600160a01b031683529284019291840191600101611159565b50909695505050505050565b634e487b7160e01b5f52604160045260245ffd5b600181811c908216806111b257607f821691505b6020821081036111d057634e487b7160e01b5f52602260045260245ffd5b50919050565b601f82111561121d57805f5260205f20601f840160051c810160208510156111fb5750805b601f840160051c820191505b8181101561121a575f8155600101611207565b50505b505050565b815167ffffffffffffffff81111561123c5761123c61118a565b6112508161124a845461119e565b846111d6565b602080601f831160018114611283575f841561126c5750858301515b5f19600386901b1c1916600185901b1785556112da565b5f85815260208120601f198616915b828110156112b157888601518255948401946001909101908401611292565b50858210156112ce57878501515f19600388901b60f8161c191681555b505060018460011b0185555b505050505050565b60608152836060820152838560808301375f60808583018101919091526001600160a01b039384166020830152919092166040830152601f909201601f19160101919050565b5f60208284031215611338575f80fd5b505191905056fea26469706673582212209d0627e336c98c22496bb2db59faaffc2c580b3248f4dc63971a6bb4a8f9413864736f6c63430008180033","linkReferences":{}},"methodIdentifiers":{"addAsset(address,string,address,address,uint8)":"353d6926","assets(address)":"f11b8188","decimals(address)":"d449a832","getAssetConfig(address)":"6ec3ab67","getFallbackProvider(address)":"db09c3fd","getPrice(address)":"41976e09","getPrimaryProvider(address)":"95eea71b","getSupportedAssets()":"e5406dbf","isSupported(address)":"4f129c53","owner()":"8da5cb5b","setAssetEnabled(address,bool)":"693c99e5","supportedAssets(uint256)":"c68dbb37","transferOwnership(address)":"f2fde38b","updateAsset(address,address,address)":"762a4862","updateFallbackProvider(address,address)":"a12b5139","updatePrimaryProvider(address,address)":"41d83bc4"},"id":17}