{"abi":[{"type":"constructor","inputs":[{"name":"_oracle","type":"address","internalType":"address"}],"stateMutability":"nonpayable"},{"type":"receive","stateMutability":"payable"},{"type":"function","name":"ETH_ADDRESS","inputs":[],"outputs":[{"name":"","type":"address","internalType":"address"}],"stateMutability":"view"},{"type":"function","name":"addAsset","inputs":[{"name":"asset","type":"address","internalType":"address"},{"name":"symbol","type":"string","internalType":"string"},{"name":"ltv","type":"uint256","internalType":"uint256"},{"name":"liquidationThreshold","type":"uint256","internalType":"uint256"},{"name":"liquidationPenalty","type":"uint256","internalType":"uint256"},{"name":"decimals_","type":"uint8","internalType":"uint8"}],"outputs":[],"stateMutability":"nonpayable"},{"type":"function","name":"assetConfigs","inputs":[{"name":"","type":"address","internalType":"address"}],"outputs":[{"name":"ltv","type":"uint256","internalType":"uint256"},{"name":"liquidationThreshold","type":"uint256","internalType":"uint256"},{"name":"liquidationPenalty","type":"uint256","internalType":"uint256"},{"name":"decimals","type":"uint8","internalType":"uint8"},{"name":"enabled","type":"bool","internalType":"bool"},{"name":"symbol","type":"string","internalType":"string"}],"stateMutability":"view"},{"type":"function","name":"depositERC20","inputs":[{"name":"asset","type":"address","internalType":"address"},{"name":"amount","type":"uint256","internalType":"uint256"}],"outputs":[],"stateMutability":"nonpayable"},{"type":"function","name":"depositETH","inputs":[],"outputs":[],"stateMutability":"payable"},{"type":"function","name":"getAssetConfig","inputs":[{"name":"asset","type":"address","internalType":"address"}],"outputs":[{"name":"","type":"tuple","internalType":"struct CollateralManager.CollateralConfig","components":[{"name":"ltv","type":"uint256","internalType":"uint256"},{"name":"liquidationThreshold","type":"uint256","internalType":"uint256"},{"name":"liquidationPenalty","type":"uint256","internalType":"uint256"},{"name":"decimals","type":"uint8","internalType":"uint8"},{"name":"enabled","type":"bool","internalType":"bool"},{"name":"symbol","type":"string","internalType":"string"}]}],"stateMutability":"view"},{"type":"function","name":"getCollateralValueUSD","inputs":[{"name":"user","type":"address","internalType":"address"}],"outputs":[{"name":"totalValueUSD","type":"uint256","internalType":"uint256"}],"stateMutability":"nonpayable"},{"type":"function","name":"getMaxBorrowValue","inputs":[{"name":"user","type":"address","internalType":"address"}],"outputs":[{"name":"","type":"uint256","internalType":"uint256"}],"stateMutability":"nonpayable"},{"type":"function","name":"getSupportedAssets","inputs":[],"outputs":[{"name":"","type":"address[]","internalType":"address[]"}],"stateMutability":"view"},{"type":"function","name":"getUserAssets","inputs":[{"name":"user","type":"address","internalType":"address"}],"outputs":[{"name":"","type":"address[]","internalType":"address[]"}],"stateMutability":"view"},{"type":"function","name":"getUserCollateralBalance","inputs":[{"name":"user","type":"address","internalType":"address"},{"name":"asset","type":"address","internalType":"address"}],"outputs":[{"name":"","type":"uint256","internalType":"uint256"}],"stateMutability":"view"},{"type":"function","name":"getUserCollaterals","inputs":[{"name":"user","type":"address","internalType":"address"}],"outputs":[{"name":"assets","type":"address[]","internalType":"address[]"},{"name":"amounts","type":"uint256[]","internalType":"uint256[]"},{"name":"valuesUSD","type":"uint256[]","internalType":"uint256[]"}],"stateMutability":"view"},{"type":"function","name":"isAssetSupported","inputs":[{"name":"asset","type":"address","internalType":"address"}],"outputs":[{"name":"","type":"bool","internalType":"bool"}],"stateMutability":"view"},{"type":"function","name":"oracle","inputs":[],"outputs":[{"name":"","type":"address","internalType":"contract OracleAggregator"}],"stateMutability":"view"},{"type":"function","name":"owner","inputs":[],"outputs":[{"name":"","type":"address","internalType":"address"}],"stateMutability":"view"},{"type":"function","name":"setAssetEnabled","inputs":[{"name":"asset","type":"address","internalType":"address"},{"name":"enabled","type":"bool","internalType":"bool"}],"outputs":[],"stateMutability":"nonpayable"},{"type":"function","name":"supportedAssets","inputs":[{"name":"","type":"uint256","internalType":"uint256"}],"outputs":[{"name":"","type":"address","internalType":"address"}],"stateMutability":"view"},{"type":"function","name":"transferOwnership","inputs":[{"name":"newOwner","type":"address","internalType":"address"}],"outputs":[],"stateMutability":"nonpayable"},{"type":"function","name":"updateAssetConfig","inputs":[{"name":"asset","type":"address","internalType":"address"},{"name":"ltv","type":"uint256","internalType":"uint256"},{"name":"liquidationThreshold","type":"uint256","internalType":"uint256"},{"name":"liquidationPenalty","type":"uint256","internalType":"uint256"}],"outputs":[],"stateMutability":"nonpayable"},{"type":"function","name":"userCollateral","inputs":[{"name":"","type":"address","internalType":"address"},{"name":"","type":"address","internalType":"address"}],"outputs":[{"name":"","type":"uint256","internalType":"uint256"}],"stateMutability":"view"},{"type":"function","name":"withdrawERC20","inputs":[{"name":"asset","type":"address","internalType":"address"},{"name":"amount","type":"uint256","internalType":"uint256"}],"outputs":[],"stateMutability":"nonpayable"},{"type":"function","name":"withdrawETH","inputs":[{"name":"amount","type":"uint256","internalType":"uint256"}],"outputs":[],"stateMutability":"nonpayable"},{"type":"event","name":"AssetAdded","inputs":[{"name":"asset","type":"address","indexed":true,"internalType":"address"},{"name":"symbol","type":"string","indexed":false,"internalType":"string"},{"name":"ltv","type":"uint256","indexed":false,"internalType":"uint256"},{"name":"liquidationThreshold","type":"uint256","indexed":false,"internalType":"uint256"},{"name":"liquidationPenalty","type":"uint256","indexed":false,"internalType":"uint256"}],"anonymous":false},{"type":"event","name":"AssetConfigUpdated","inputs":[{"name":"asset","type":"address","indexed":true,"internalType":"address"},{"name":"ltv","type":"uint256","indexed":false,"internalType":"uint256"},{"name":"liquidationThreshold","type":"uint256","indexed":false,"internalType":"uint256"},{"name":"liquidationPenalty","type":"uint256","indexed":false,"internalType":"uint256"}],"anonymous":false},{"type":"event","name":"AssetEnabled","inputs":[{"name":"asset","type":"address","indexed":true,"internalType":"address"},{"name":"enabled","type":"bool","indexed":false,"internalType":"bool"}],"anonymous":false},{"type":"event","name":"CollateralDeposited","inputs":[{"name":"user","type":"address","indexed":true,"internalType":"address"},{"name":"asset","type":"address","indexed":true,"internalType":"address"},{"name":"amount","type":"uint256","indexed":false,"internalType":"uint256"},{"name":"timestamp","type":"uint256","indexed":false,"internalType":"uint256"}],"anonymous":false},{"type":"event","name":"CollateralWithdrawn","inputs":[{"name":"user","type":"address","indexed":true,"internalType":"address"},{"name":"asset","type":"address","indexed":true,"internalType":"address"},{"name":"amount","type":"uint256","indexed":false,"internalType":"uint256"},{"name":"timestamp","type":"uint256","indexed":false,"internalType":"uint256"}],"anonymous":false},{"type":"error","name":"AssetAlreadyExists","inputs":[]},{"type":"error","name":"AssetNotSupported","inputs":[]},{"type":"error","name":"InsufficientCollateral","inputs":[]},{"type":"error","name":"InvalidAddress","inputs":[]},{"type":"error","name":"InvalidAmount","inputs":[]},{"type":"error","name":"InvalidConfig","inputs":[]},{"type":"error","name":"TransferFailed","inputs":[]},{"type":"error","name":"Unauthorized","inputs":[]}],"bytecode":{"object":"0x60a060405234801562000010575f80fd5b506040516200275e3803806200275e83398101604081905262000033916200007e565b6001600160a01b0381166200005b5760405163e6c4247b60e01b815260040160405180910390fd5b6001600160a01b03166080525f80546001600160a01b03191633179055620000ad565b5f602082840312156200008f575f80fd5b81516001600160a01b0381168114620000a6575f80fd5b9392505050565b60805161268a620000d45f395f81816102f0015281816105bc0152611161015261268a5ff3fe608060405260043610610134575f3560e01c8063a1db9782116100a8578063d5ceb1c91161006d578063d5ceb1c914610438578063e5406dbf14610457578063f14210a61461046b578063f2ba56771461048a578063f2fde38b146104a9578063f6326fb3146104c8575f80fd5b8063a1db978214610395578063a734f06e146103b4578063b7679456146103db578063c2ee7ca6146103fa578063c68dbb3714610419575f80fd5b80637609d7f6116100f95780637609d7f614610282578063765ff061146102b35780637dc0d1d0146102df57806385988d9d1461032a5780638da5cb5b1461035857806397feb92614610376575f80fd5b80632b92a07d1461017d5780633a5d0a48146101c6578063464b4158146101e5578063693c99e5146102355780636ec3ab6714610256575f80fd5b366101795760405162461bcd60e51b815260206004820152601060248201526f557365206465706f736974455448282960801b60448201526064015b60405180910390fd5b5f80fd5b348015610188575f80fd5b506101b3610197366004611f72565b600160209081525f928352604080842090915290825290205481565b6040519081526020015b60405180910390f35b3480156101d1575f80fd5b506101b36101e0366004611fa3565b6104d0565b3480156101f0575f80fd5b506102256101ff366004611fa3565b6001600160a01b03165f9081526003602081905260409091200154610100900460ff1690565b60405190151581526020016101bd565b348015610240575f80fd5b5061025461024f366004611fcc565b610790565b005b348015610261575f80fd5b50610275610270366004611fa3565b610863565b6040516101bd919061204e565b34801561028d575f80fd5b506102a161029c366004611fa3565b610996565b6040516101bd9695949392919061209f565b3480156102be575f80fd5b506102d26102cd366004611fa3565b610a5c565b6040516101bd9190612123565b3480156102ea575f80fd5b506103127f000000000000000000000000000000000000000000000000000000000000000081565b6040516001600160a01b0390911681526020016101bd565b348015610335575f80fd5b50610349610344366004611fa3565b610acf565b6040516101bd93929190612164565b348015610363575f80fd5b505f54610312906001600160a01b031681565b348015610381575f80fd5b506102546103903660046121a6565b610c6a565b3480156103a0575f80fd5b506102546103af3660046121a6565b610dae565b3480156103bf575f80fd5b5061031273eeeeeeeeeeeeeeeeeeeeeeeeeeeeeeeeeeeeeeee81565b3480156103e6575f80fd5b506102546103f53660046121ce565b610f34565b348015610405575f80fd5b506101b3610414366004611fa3565b611074565b348015610424575f80fd5b50610312610433366004612204565b611355565b348015610443575f80fd5b5061025461045236600461222b565b61137d565b348015610462575f80fd5b506102d26115e5565b348015610476575f80fd5b50610254610485366004612204565b611645565b348015610495575f80fd5b506101b36104a4366004611f72565b611830565b3480156104b4575f80fd5b506102546104c3366004611fa3565b61185c565b6102546118cd565b6001600160a01b0381165f9081526002602090815260408083208054825181850281018501909352808352849383018282801561053457602002820191905f5260205f20905b81546001600160a01b03168152600190910190602001808311610516575b505050505090505f5b8151811015610789575f828281518110610559576105596122d3565b6020908102919091018101516001600160a01b038088165f9081526001845260408082209284168252919093528220549092509081900361059b575050610781565b6040516341976e0960e01b81526001600160a01b0383811660048301525f917f0000000000000000000000000000000000000000000000000000000000000000909116906341976e09906024016020604051808303815f875af1158015610604573d5f803e3d5ffd5b505050506040513d601f19601f8201168201806040525081019061062891906122e7565b90505f81136106695760405162461bcd60e51b815260206004820152600d60248201526c496e76616c696420707269636560981b6044820152606401610170565b6001600160a01b0383165f908152600360208181526040808420815160c081018352815481526001820154938101939093526002810154918301919091529182015460ff8082166060840152610100909104161515608082015260048201805491929160a0840191906106db906122fe565b80601f0160208091040260200160405190810160405280929190818152602001828054610707906122fe565b80156107525780601f1061072957610100808354040283529160200191610752565b820191905f5260205f20905b81548152906001019060200180831161073557829003601f168201915b50505050508152505090505f61076d84848460600151611a08565b9050610779818961234a565b975050505050505b60010161053d565b5050919050565b5f546001600160a01b031633146107b9576040516282b42960e81b815260040160405180910390fd5b6001600160a01b0382165f9081526003602081905260408220015460ff1690036107f65760405163981a2a2b60e01b815260040160405180910390fd5b6001600160a01b0382165f818152600360208190526040918290200180548415156101000261ff0019909116179055517f892da7b7147bce9ab581ddb7e7e650658f454e02b206040115bc12f20426dc429061085790841515815260200190565b60405180910390a25050565b61089c6040518060c001604052805f81526020015f81526020015f81526020015f60ff1681526020015f15158152602001606081525090565b6001600160a01b0382165f90815260036020818152604092839020835160c081018552815481526001820154928101929092526002810154938201939093529082015460ff8082166060840152610100909104161515608082015260048201805491929160a08401919061090f906122fe565b80601f016020809104026020016040519081016040528092919081815260200182805461093b906122fe565b80156109865780601f1061095d57610100808354040283529160200191610986565b820191905f5260205f20905b81548152906001019060200180831161096957829003601f168201915b5050505050815250509050919050565b600360208190525f91825260409091208054600182015460028301549383015460048401805493959294929360ff80841694610100909404169291906109db906122fe565b80601f0160208091040260200160405190810160405280929190818152602001828054610a07906122fe565b8015610a525780601f10610a2957610100808354040283529160200191610a52565b820191905f5260205f20905b815481529060010190602001808311610a3557829003601f168201915b5050505050905086565b6001600160a01b0381165f90815260026020908152604091829020805483518184028101840190945280845260609392830182828015610ac357602002820191905f5260205f20905b81546001600160a01b03168152600190910190602001808311610aa5575b50505050509050919050565b606080606060025f856001600160a01b03166001600160a01b031681526020019081526020015f20805480602002602001604051908101604052809291908181526020018280548015610b4957602002820191905f5260205f20905b81546001600160a01b03168152600190910190602001808311610b2b575b50505050509250825167ffffffffffffffff811115610b6a57610b6a61235d565b604051908082528060200260200182016040528015610b93578160200160208202803683370190505b509150825167ffffffffffffffff811115610bb057610bb061235d565b604051908082528060200260200182016040528015610bd9578160200160208202803683370190505b5090505f5b8351811015610c62576001600160a01b0385165f9081526001602052604081208551909190869084908110610c1557610c156122d3565b60200260200101516001600160a01b03166001600160a01b031681526020019081526020015f2054838281518110610c4f57610c4f6122d3565b6020908102919091010152600101610bde565b509193909250565b80805f03610c8b5760405163162908e360e11b815260040160405180910390fd5b6001600160a01b0383165f90815260036020819052604090912001548390610100900460ff16610cce5760405163981a2a2b60e01b815260040160405180910390fd5b73eeeeeeeeeeeeeeeeeeeeeeeeeeeeeeeeeeeeeeed196001600160a01b03851601610d0c5760405163e6c4247b60e01b815260040160405180910390fd5b610d216001600160a01b038516333086611a87565b335f9081526001602090815260408083206001600160a01b038816845290915281208054859290610d5390849061234a565b90915550610d6390503385611af2565b604080518481524260208201526001600160a01b0386169133917f95d16db8c4932fcf5d6de67364791e7178ec505c7d3829a8b34d18959c01552c910160405180910390a350505050565b80805f03610dcf5760405163162908e360e11b815260040160405180910390fd5b6001600160a01b0383165f90815260036020819052604090912001548390610100900460ff16610e125760405163981a2a2b60e01b815260040160405180910390fd5b73eeeeeeeeeeeeeeeeeeeeeeeeeeeeeeeeeeeeeeed196001600160a01b03851601610e505760405163e6c4247b60e01b815260040160405180910390fd5b335f9081526001602090815260408083206001600160a01b0388168452909152902054831115610e9357604051633a23d82560e01b815260040160405180910390fd5b335f9081526001602090815260408083206001600160a01b038816845290915281208054859290610ec5908490612371565b90915550610ed590503385611b8b565b604080518481524260208201526001600160a01b0386169133917f4700a5c58c58ea6536703185e43dae38bfd4158ee5330c70988f02a65562a36e910160405180910390a3610f2e6001600160a01b0385163385611cc5565b50505050565b5f546001600160a01b03163314610f5d576040516282b42960e81b815260040160405180910390fd5b6001600160a01b0384165f90815260036020819052604090912001548490610100900460ff16610fa05760405163981a2a2b60e01b815260040160405180910390fd5b828410610fc0576040516306b7c75960e31b815260040160405180910390fd5b6064831115610fe2576040516306b7c75960e31b815260040160405180910390fd5b6032821115611004576040516306b7c75960e31b815260040160405180910390fd5b6001600160a01b0385165f818152600360209081526040918290208781556001810187905560020185905581518781529081018690529081018490527f16b940d322e6fdbf90e85acbdf71d2a22ccc6bdea8367c83749ef2bead5d359c9060600160405180910390a25050505050565b6001600160a01b0381165f908152600260209081526040808320805482518185028101850190935280835284938301828280156110d857602002820191905f5260205f20905b81546001600160a01b031681526001909101906020018083116110ba575b505050505090505f805b825181101561134d575f8382815181106110fe576110fe6122d3565b6020908102919091018101516001600160a01b038089165f90815260018452604080822092841682529190935282205490925090819003611140575050611345565b6040516341976e0960e01b81526001600160a01b0383811660048301525f917f0000000000000000000000000000000000000000000000000000000000000000909116906341976e09906024016020604051808303815f875af11580156111a9573d5f803e3d5ffd5b505050506040513d601f19601f820116820180604052508101906111cd91906122e7565b90505f811361120e5760405162461bcd60e51b815260206004820152600d60248201526c496e76616c696420707269636560981b6044820152606401610170565b6001600160a01b0383165f908152600360208181526040808420815160c081018352815481526001820154938101939093526002810154918301919091529182015460ff8082166060840152610100909104161515608082015260048201805491929160a084019190611280906122fe565b80601f01602080910402602001604051908101604052809291908181526020018280546112ac906122fe565b80156112f75780601f106112ce576101008083540402835291602001916112f7565b820191905f5260205f20905b8154815290600101906020018083116112da57829003601f168201915b50505050508152505090505f61131284848460600151611a08565b90505f6064835f0151836113269190612384565b611330919061239b565b905061133c818961234a565b97505050505050505b6001016110e2565b509392505050565b60048181548110611364575f80fd5b5f918252602090912001546001600160a01b0316905081565b5f546001600160a01b031633146113a6576040516282b42960e81b815260040160405180910390fd5b6001600160a01b0387166113cd5760405163e6c4247b60e01b815260040160405180910390fd5b6001600160a01b0387165f9081526003602081905260409091200154610100900460ff161561140f5760405163dc0d0aab60e01b815260040160405180910390fd5b82841061142f576040516306b7c75960e31b815260040160405180910390fd5b6064831115611451576040516306b7c75960e31b815260040160405180910390fd5b6032821115611473576040516306b7c75960e31b815260040160405180910390fd5b6040518060c001604052808581526020018481526020018381526020018260ff16815260200160011515815260200187878080601f0160208091040260200160405190810160405280939291908181526020018383808284375f9201829052509390945250506001600160a01b038a168152600360208181526040928390208551815590850151600182015591840151600283015560608401519082018054608086015115156101000261ffff1990911660ff9093169290921791909117905560a0830151909150600482019061154a9082612405565b5050600480546001810182555f919091527f8a35acfbc15ff81a39ae7d344fd709f28e8600b4aa8c65c6b64bfe7fe36bd19b0180546001600160a01b0319166001600160a01b038a169081179091556040519091507f8210de39e6ef9d0843877ce0dedda3fe5d7e18fbd62abfd8dfca886b251e41ed906115d490899089908990899089906124c5565b60405180910390a250505050505050565b6060600480548060200260200160405190810160405280929190818152602001828054801561163b57602002820191905f5260205f20905b81546001600160a01b0316815260019091019060200180831161161d575b5050505050905090565b80805f036116665760405163162908e360e11b815260040160405180910390fd5b73eeeeeeeeeeeeeeeeeeeeeeeeeeeeeeeeeeeeeeee5f81905260036020527f40c35f83c179e47de306c9fe55fdc60064f11dd52adb51ab61b5643ee626f99054610100900460ff166116cb5760405163981a2a2b60e01b815260040160405180910390fd5b335f90815260016020908152604080832073eeeeeeeeeeeeeeeeeeeeeeeeeeeeeeeeeeeeeeee845290915290205483111561171957604051633a23d82560e01b815260040160405180910390fd5b335f90815260016020908152604080832073eeeeeeeeeeeeeeeeeeeeeeeeeeeeeeeeeeeeeeee845290915281208054859290611756908490612371565b9091555061177a90503373eeeeeeeeeeeeeeeeeeeeeeeeeeeeeeeeeeeeeeee611b8b565b6040805184815242602082015273eeeeeeeeeeeeeeeeeeeeeeeeeeeeeeeeeeeeeeee9133917f4700a5c58c58ea6536703185e43dae38bfd4158ee5330c70988f02a65562a36e910160405180910390a36040515f90339085908381818185875af1925050503d805f8114611809576040519150601f19603f3d011682016040523d82523d5f602084013e61180e565b606091505b5050905080610f2e576040516312171d8360e31b815260040160405180910390fd5b6001600160a01b038083165f908152600160209081526040808320938516835292905220545b92915050565b5f546001600160a01b03163314611885576040516282b42960e81b815260040160405180910390fd5b6001600160a01b0381166118ac5760405163e6c4247b60e01b815260040160405180910390fd5b5f80546001600160a01b0319166001600160a01b0392909216919091179055565b34805f036118ee5760405163162908e360e11b815260040160405180910390fd5b73eeeeeeeeeeeeeeeeeeeeeeeeeeeeeeeeeeeeeeee5f81905260036020527f40c35f83c179e47de306c9fe55fdc60064f11dd52adb51ab61b5643ee626f99054610100900460ff166119535760405163981a2a2b60e01b815260040160405180910390fd5b335f90815260016020908152604080832073eeeeeeeeeeeeeeeeeeeeeeeeeeeeeeeeeeeeeeee84529091528120805434929061199090849061234a565b909155506119b490503373eeeeeeeeeeeeeeeeeeeeeeeeeeeeeeeeeeeeeeee611af2565b6040805134815242602082015273eeeeeeeeeeeeeeeeeeeeeeeeeeeeeeeeeeeeeeee9133917f95d16db8c4932fcf5d6de67364791e7178ec505c7d3829a8b34d18959c01552c910160405180910390a35050565b5f8160ff16601203611a3857670de0b6b3a7640000611a278486612384565b611a31919061239b565b9050611a80565b8160ff16600603611a5157620f4240611a278486612384565b8160ff16600803611a6b576305f5e100611a278486612384565b611a7682600a6125ea565b611a278486612384565b9392505050565b6040516001600160a01b0380851660248301528316604482015260648101829052610f2e9085906323b872dd60e01b906084015b60408051601f198184030181529190526020810180516001600160e01b03166001600160e01b031990931692909217909152611cfa565b6001600160a01b0382165f908152600260205260408120905b8154811015611b5757826001600160a01b0316828281548110611b3057611b306122d3565b5f918252602090912001546001600160a01b031603611b4f5750505050565b600101611b0b565b5080546001810182555f91825260209091200180546001600160a01b0319166001600160a01b039290921691909117905550565b6001600160a01b038083165f9081526001602090815260408083209385168352929052205415611bb9575050565b6001600160a01b0382165f908152600260205260408120905b8154811015610f2e57826001600160a01b0316828281548110611bf757611bf76122d3565b5f918252602090912001546001600160a01b031603611cbd5781548290611c2090600190612371565b81548110611c3057611c306122d3565b905f5260205f20015f9054906101000a90046001600160a01b0316828281548110611c5d57611c5d6122d3565b905f5260205f20015f6101000a8154816001600160a01b0302191690836001600160a01b0316021790555081805480611c9857611c986125f8565b5f8281526020902081015f1990810180546001600160a01b0319169055019055610f2e565b600101611bd2565b6040516001600160a01b038316602482015260448101829052611cf590849063a9059cbb60e01b90606401611abb565b505050565b5f611d4e826040518060400160405280602081526020017f5361666545524332303a206c6f772d6c6576656c2063616c6c206661696c6564815250856001600160a01b0316611dcd9092919063ffffffff16565b905080515f1480611d6e575080806020019051810190611d6e919061260c565b611cf55760405162461bcd60e51b815260206004820152602a60248201527f5361666545524332303a204552433230206f7065726174696f6e20646964206e6044820152691bdd081cdd58d8d9595960b21b6064820152608401610170565b6060611ddb84845f85611de3565b949350505050565b606082471015611e445760405162461bcd60e51b815260206004820152602660248201527f416464726573733a20696e73756666696369656e742062616c616e636520666f6044820152651c8818d85b1b60d21b6064820152608401610170565b5f80866001600160a01b03168587604051611e5f9190612627565b5f6040518083038185875af1925050503d805f8114611e99576040519150601f19603f3d011682016040523d82523d5f602084013e611e9e565b606091505b5091509150611eaf87838387611eba565b979650505050505050565b60608315611f285782515f03611f21576001600160a01b0385163b611f215760405162461bcd60e51b815260206004820152601d60248201527f416464726573733a2063616c6c20746f206e6f6e2d636f6e74726163740000006044820152606401610170565b5081611ddb565b611ddb8383815115611f3d5781518083602001fd5b8060405162461bcd60e51b81526004016101709190612642565b80356001600160a01b0381168114611f6d575f80fd5b919050565b5f8060408385031215611f83575f80fd5b611f8c83611f57565b9150611f9a60208401611f57565b90509250929050565b5f60208284031215611fb3575f80fd5b611a8082611f57565b8015158114611fc9575f80fd5b50565b5f8060408385031215611fdd575f80fd5b611fe683611f57565b91506020830135611ff681611fbc565b809150509250929050565b5f5b8381101561201b578181015183820152602001612003565b50505f910152565b5f815180845261203a816020860160208601612001565b601f01601f19169290920160200192915050565b6020815281516020820152602082015160408201526040820151606082015260ff60608301511660808201526080820151151560a08201525f60a083015160c080840152611ddb60e0840182612023565b86815285602082015284604082015260ff84166060820152821515608082015260c060a08201525f6120d460c0830184612023565b98975050505050505050565b5f815180845260208085019450602084015f5b838110156121185781516001600160a01b0316875295820195908201906001016120f3565b509495945050505050565b602081525f611a8060208301846120e0565b5f815180845260208085019450602084015f5b8381101561211857815187529582019590820190600101612148565b606081525f61217660608301866120e0565b82810360208401526121888186612135565b9050828103604084015261219c8185612135565b9695505050505050565b5f80604083850312156121b7575f80fd5b6121c083611f57565b946020939093013593505050565b5f805f80608085870312156121e1575f80fd5b6121ea85611f57565b966020860135965060408601359560600135945092505050565b5f60208284031215612214575f80fd5b5035919050565b803560ff81168114611f6d575f80fd5b5f805f805f805f60c0888a031215612241575f80fd5b61224a88611f57565b9650602088013567ffffffffffffffff80821115612266575f80fd5b818a0191508a601f830112612279575f80fd5b813581811115612287575f80fd5b8b6020828501011115612298575f80fd5b6020830198508097505050506040880135935060608801359250608088013591506122c560a0890161221b565b905092959891949750929550565b634e487b7160e01b5f52603260045260245ffd5b5f602082840312156122f7575f80fd5b5051919050565b600181811c9082168061231257607f821691505b60208210810361233057634e487b7160e01b5f52602260045260245ffd5b50919050565b634e487b7160e01b5f52601160045260245ffd5b8082018082111561185657611856612336565b634e487b7160e01b5f52604160045260245ffd5b8181038181111561185657611856612336565b808202811582820484141761185657611856612336565b5f826123b557634e487b7160e01b5f52601260045260245ffd5b500490565b601f821115611cf557805f5260205f20601f840160051c810160208510156123df5750805b601f840160051c820191505b818110156123fe575f81556001016123eb565b5050505050565b815167ffffffffffffffff81111561241f5761241f61235d565b6124338161242d84546122fe565b846123ba565b602080601f831160018114612466575f841561244f5750858301515b5f19600386901b1c1916600185901b1785556124bd565b5f85815260208120601f198616915b8281101561249457888601518255948401946001909101908401612475565b50858210156124b157878501515f19600388901b60f8161c191681555b505060018460011b0185555b505050505050565b60808152846080820152848660a08301375f60a086830101525f60a0601f19601f88011683010190508460208301528360408301528260608301529695505050505050565b600181815b8085111561254457815f190482111561252a5761252a612336565b8085161561253757918102915b93841c939080029061250f565b509250929050565b5f8261255a57506001611856565b8161256657505f611856565b816001811461257c5760028114612586576125a2565b6001915050611856565b60ff84111561259757612597612336565b50506001821b611856565b5060208310610133831016604e8410600b84101617156125c5575081810a611856565b6125cf838361250a565b805f19048211156125e2576125e2612336565b029392505050565b5f611a8060ff84168361254c565b634e487b7160e01b5f52603160045260245ffd5b5f6020828403121561261c575f80fd5b8151611a8081611fbc565b5f8251612638818460208701612001565b9190910192915050565b602081525f611a80602083018461202356fea26469706673582212203cfa7bd4fdb25e59f4df9f9c709b22f1c80db5316fbe5c9fd45683815422163664736f6c63430008180033","linkReferences":{}},"methodIdentifiers":{"ETH_ADDRESS()":"a734f06e","addAsset(address,string,uint256,uint256,uint256,uint8)":"d5ceb1c9","assetConfigs(address)":"7609d7f6","depositERC20(address,uint256)":"97feb926","depositETH()":"f6326fb3","getAssetConfig(address)":"6ec3ab67","getCollateralValueUSD(address)":"3a5d0a48","getMaxBorrowValue(address)":"c2ee7ca6","getSupportedAssets()":"e5406dbf","getUserAssets(address)":"765ff061","getUserCollateralBalance(address,address)":"f2ba5677","getUserCollaterals(address)":"85988d9d","isAssetSupported(address)":"464b4158","oracle()":"7dc0d1d0","owner()":"8da5cb5b","setAssetEnabled(address,bool)":"693c99e5","supportedAssets(uint256)":"c68dbb37","transferOwnership(address)":"f2fde38b","updateAssetConfig(address,uint256,uint256,uint256)":"b7679456","userCollateral(address,address)":"2b92a07d","withdrawERC20(address,uint256)":"a1db9782","withdrawETH(uint256)":"f14210a6"},"id":0}